{
  "_format": "hh-sol-artifact-1",
  "contractName": "Books",
  "sourceName": "contracts/Books.sol",
  "abi": [
    {
      "inputs": [],
      "stateMutability": "nonpayable",
      "type": "constructor"
    },
    {
      "anonymous": false,
      "inputs": [
        {
          "indexed": true,
          "internalType": "address",
          "name": "account",
          "type": "address"
        },
        {
          "indexed": true,
          "internalType": "address",
          "name": "operator",
          "type": "address"
        },
        {
          "indexed": false,
          "internalType": "bool",
          "name": "approved",
          "type": "bool"
        }
      ],
      "name": "ApprovalForAll",
      "type": "event"
    },
    {
      "anonymous": false,
      "inputs": [
        {
          "indexed": true,
          "internalType": "address",
          "name": "operator",
          "type": "address"
        },
        {
          "indexed": true,
          "internalType": "address",
          "name": "from",
          "type": "address"
        },
        {
          "indexed": true,
          "internalType": "address",
          "name": "to",
          "type": "address"
        },
        {
          "indexed": false,
          "internalType": "uint256[]",
          "name": "ids",
          "type": "uint256[]"
        },
        {
          "indexed": false,
          "internalType": "uint256[]",
          "name": "values",
          "type": "uint256[]"
        }
      ],
      "name": "TransferBatch",
      "type": "event"
    },
    {
      "anonymous": false,
      "inputs": [
        {
          "indexed": true,
          "internalType": "address",
          "name": "operator",
          "type": "address"
        },
        {
          "indexed": true,
          "internalType": "address",
          "name": "from",
          "type": "address"
        },
        {
          "indexed": true,
          "internalType": "address",
          "name": "to",
          "type": "address"
        },
        {
          "indexed": false,
          "internalType": "uint256",
          "name": "id",
          "type": "uint256"
        },
        {
          "indexed": false,
          "internalType": "uint256",
          "name": "value",
          "type": "uint256"
        }
      ],
      "name": "TransferSingle",
      "type": "event"
    },
    {
      "anonymous": false,
      "inputs": [
        {
          "indexed": false,
          "internalType": "string",
          "name": "value",
          "type": "string"
        },
        {
          "indexed": true,
          "internalType": "uint256",
          "name": "id",
          "type": "uint256"
        }
      ],
      "name": "URI",
      "type": "event"
    },
    {
      "inputs": [
        {
          "internalType": "address",
          "name": "account",
          "type": "address"
        },
        {
          "internalType": "uint256",
          "name": "id",
          "type": "uint256"
        }
      ],
      "name": "balanceOf",
      "outputs": [
        {
          "internalType": "uint256",
          "name": "",
          "type": "uint256"
        }
      ],
      "stateMutability": "view",
      "type": "function"
    },
    {
      "inputs": [
        {
          "internalType": "address[]",
          "name": "accounts",
          "type": "address[]"
        },
        {
          "internalType": "uint256[]",
          "name": "ids",
          "type": "uint256[]"
        }
      ],
      "name": "balanceOfBatch",
      "outputs": [
        {
          "internalType": "uint256[]",
          "name": "",
          "type": "uint256[]"
        }
      ],
      "stateMutability": "view",
      "type": "function"
    },
    {
      "inputs": [
        {
          "internalType": "address",
          "name": "account",
          "type": "address"
        },
        {
          "internalType": "address",
          "name": "operator",
          "type": "address"
        }
      ],
      "name": "isApprovedForAll",
      "outputs": [
        {
          "internalType": "bool",
          "name": "",
          "type": "bool"
        }
      ],
      "stateMutability": "view",
      "type": "function"
    },
    {
      "inputs": [
        {
          "internalType": "uint256",
          "name": "isbn",
          "type": "uint256"
        },
        {
          "internalType": "uint256",
          "name": "amount",
          "type": "uint256"
        }
      ],
      "name": "mint",
      "outputs": [],
      "stateMutability": "nonpayable",
      "type": "function"
    },
    {
      "inputs": [],
      "name": "owner",
      "outputs": [
        {
          "internalType": "address",
          "name": "",
          "type": "address"
        }
      ],
      "stateMutability": "view",
      "type": "function"
    },
    {
      "inputs": [
        {
          "internalType": "address",
          "name": "from",
          "type": "address"
        },
        {
          "internalType": "address",
          "name": "to",
          "type": "address"
        },
        {
          "internalType": "uint256[]",
          "name": "ids",
          "type": "uint256[]"
        },
        {
          "internalType": "uint256[]",
          "name": "amounts",
          "type": "uint256[]"
        },
        {
          "internalType": "bytes",
          "name": "data",
          "type": "bytes"
        }
      ],
      "name": "safeBatchTransferFrom",
      "outputs": [],
      "stateMutability": "nonpayable",
      "type": "function"
    },
    {
      "inputs": [
        {
          "internalType": "address",
          "name": "from",
          "type": "address"
        },
        {
          "internalType": "address",
          "name": "to",
          "type": "address"
        },
        {
          "internalType": "uint256",
          "name": "id",
          "type": "uint256"
        },
        {
          "internalType": "uint256",
          "name": "amount",
          "type": "uint256"
        },
        {
          "internalType": "bytes",
          "name": "data",
          "type": "bytes"
        }
      ],
      "name": "safeTransferFrom",
      "outputs": [],
      "stateMutability": "nonpayable",
      "type": "function"
    },
    {
      "inputs": [
        {
          "internalType": "address",
          "name": "operator",
          "type": "address"
        },
        {
          "internalType": "bool",
          "name": "approved",
          "type": "bool"
        }
      ],
      "name": "setApprovalForAll",
      "outputs": [],
      "stateMutability": "nonpayable",
      "type": "function"
    },
    {
      "inputs": [
        {
          "internalType": "bytes4",
          "name": "interfaceId",
          "type": "bytes4"
        }
      ],
      "name": "supportsInterface",
      "outputs": [
        {
          "internalType": "bool",
          "name": "",
          "type": "bool"
        }
      ],
      "stateMutability": "view",
      "type": "function"
    },
    {
      "inputs": [
        {
          "internalType": "uint256",
          "name": "id",
          "type": "uint256"
        }
      ],
      "name": "uri",
      "outputs": [
        {
          "internalType": "string",
          "name": "",
          "type": "string"
        }
      ],
      "stateMutability": "pure",
      "type": "function"
    }
  ],
  "bytecode": "0x60806040523480156200001157600080fd5b506040518060600160405280603f815260200162002ee8603f91396200003d816200008560201b60201c565b5033600360006101000a81548173ffffffffffffffffffffffffffffffffffffffff021916908373ffffffffffffffffffffffffffffffffffffffff160217905550620003fb565b806002908162000096919062000314565b5050565b600081519050919050565b7f4e487b7100000000000000000000000000000000000000000000000000000000600052604160045260246000fd5b7f4e487b7100000000000000000000000000000000000000000000000000000000600052602260045260246000fd5b600060028204905060018216806200011c57607f821691505b602082108103620001325762000131620000d4565b5b50919050565b60008190508160005260206000209050919050565b60006020601f8301049050919050565b600082821b905092915050565b6000600883026200019c7fffffffffffffffffffffffffffffffffffffffffffffffffffffffffffffffff826200015d565b620001a886836200015d565b95508019841693508086168417925050509392505050565b6000819050919050565b6000819050919050565b6000620001f5620001ef620001e984620001c0565b620001ca565b620001c0565b9050919050565b6000819050919050565b6200021183620001d4565b620002296200022082620001fc565b8484546200016a565b825550505050565b600090565b6200024062000231565b6200024d81848462000206565b505050565b5b8181101562000275576200026960008262000236565b60018101905062000253565b5050565b601f821115620002c4576200028e8162000138565b62000299846200014d565b81016020851015620002a9578190505b620002c1620002b8856200014d565b83018262000252565b50505b505050565b600082821c905092915050565b6000620002e960001984600802620002c9565b1980831691505092915050565b6000620003048383620002d6565b9150826002028217905092915050565b6200031f826200009a565b67ffffffffffffffff8111156200033b576200033a620000a5565b5b62000347825462000103565b6200035482828562000279565b600060209050601f8311600181146200038c576000841562000377578287015190505b620003838582620002f6565b865550620003f3565b601f1984166200039c8662000138565b60005b82811015620003c6578489015182556001820191506020850194506020810190506200039f565b86831015620003e65784890151620003e2601f891682620002d6565b8355505b6001600288020188555050505b505050505050565b612add806200040b6000396000f3fe608060405234801561001057600080fd5b506004361061009d5760003560e01c80634e1273f4116100665780634e1273f41461016a5780638da5cb5b1461019a578063a22cb465146101b8578063e985e9c5146101d4578063f242432a146102045761009d565b8062fdd58e146100a257806301ffc9a7146100d25780630e89341c146101025780631b2ef1ca146101325780632eb2c2d61461014e575b600080fd5b6100bc60048036038101906100b791906117b3565b610220565b6040516100c99190611802565b60405180910390f35b6100ec60048036038101906100e79190611875565b6102e8565b6040516100f991906118bd565b60405180910390f35b61011c600480360381019061011791906118d8565b6103ca565b6040516101299190611995565b60405180910390f35b61014c600480360381019061014791906119b7565b6103fb565b005b61016860048036038101906101639190611bf4565b61041a565b005b610184600480360381019061017f9190611d86565b6104bb565b6040516101919190611ebc565b60405180910390f35b6101a26105d4565b6040516101af9190611eed565b60405180910390f35b6101d260048036038101906101cd9190611f34565b6105fa565b005b6101ee60048036038101906101e99190611f74565b610610565b6040516101fb91906118bd565b60405180910390f35b61021e60048036038101906102199190611fb4565b6106a4565b005b60008073ffffffffffffffffffffffffffffffffffffffff168373ffffffffffffffffffffffffffffffffffffffff1603610290576040517f08c379a0000000000000000000000000000000000000000000000000000000008152600401610287906120bd565b60405180910390fd5b60008083815260200190815260200160002060008473ffffffffffffffffffffffffffffffffffffffff1673ffffffffffffffffffffffffffffffffffffffff16815260200190815260200160002054905092915050565b60007fd9b67a26000000000000000000000000000000000000000000000000000000007bffffffffffffffffffffffffffffffffffffffffffffffffffffffff1916827bffffffffffffffffffffffffffffffffffffffffffffffffffffffff191614806103b357507f0e89341c000000000000000000000000000000000000000000000000000000007bffffffffffffffffffffffffffffffffffffffffffffffffffffffff1916827bffffffffffffffffffffffffffffffffffffffffffffffffffffffff1916145b806103c357506103c282610745565b5b9050919050565b60606103d5826107af565b6040516020016103e591906121d7565b6040516020818303038152906040529050919050565b6104163383836040518060200160405280600081525061087d565b5050565b610422610a2d565b73ffffffffffffffffffffffffffffffffffffffff168573ffffffffffffffffffffffffffffffffffffffff161480610468575061046785610462610a2d565b610610565b5b6104a7576040517f08c379a000000000000000000000000000000000000000000000000000000000815260040161049e90612276565b60405180910390fd5b6104b48585858585610a35565b5050505050565b60608151835114610501576040517f08c379a00000000000000000000000000000000000000000000000000000000081526004016104f890612308565b60405180910390fd5b6000835167ffffffffffffffff81111561051e5761051d6119fc565b5b60405190808252806020026020018201604052801561054c5781602001602082028036833780820191505090505b50905060005b84518110156105c95761059985828151811061057157610570612328565b5b602002602001015185838151811061058c5761058b612328565b5b6020026020010151610220565b8282815181106105ac576105ab612328565b5b602002602001018181525050806105c290612386565b9050610552565b508091505092915050565b600360009054906101000a900473ffffffffffffffffffffffffffffffffffffffff1681565b61060c610605610a2d565b8383610d56565b5050565b6000600160008473ffffffffffffffffffffffffffffffffffffffff1673ffffffffffffffffffffffffffffffffffffffff16815260200190815260200160002060008373ffffffffffffffffffffffffffffffffffffffff1673ffffffffffffffffffffffffffffffffffffffff16815260200190815260200160002060009054906101000a900460ff16905092915050565b6106ac610a2d565b73ffffffffffffffffffffffffffffffffffffffff168573ffffffffffffffffffffffffffffffffffffffff1614806106f257506106f1856106ec610a2d565b610610565b5b610731576040517f08c379a000000000000000000000000000000000000000000000000000000000815260040161072890612276565b60405180910390fd5b61073e8585858585610ec2565b5050505050565b60007f01ffc9a7000000000000000000000000000000000000000000000000000000007bffffffffffffffffffffffffffffffffffffffffffffffffffffffff1916827bffffffffffffffffffffffffffffffffffffffffffffffffffffffff1916149050919050565b6060600060016107be8461115d565b01905060008167ffffffffffffffff8111156107dd576107dc6119fc565b5b6040519080825280601f01601f19166020018201604052801561080f5781602001600182028036833780820191505090505b509050600082602001820190505b600115610872578080600190039150507f3031323334353637383961626364656600000000000000000000000000000000600a86061a8153600a8581610866576108656123ce565b5b0494506000850361081d575b819350505050919050565b600073ffffffffffffffffffffffffffffffffffffffff168473ffffffffffffffffffffffffffffffffffffffff16036108ec576040517f08c379a00000000000000000000000000000000000000000000000000000000081526004016108e39061246f565b60405180910390fd5b60006108f6610a2d565b90506000610903856112b0565b90506000610910856112b0565b90506109218360008985858961132a565b8460008088815260200190815260200160002060008973ffffffffffffffffffffffffffffffffffffffff1673ffffffffffffffffffffffffffffffffffffffff1681526020019081526020016000206000828254610980919061248f565b925050819055508673ffffffffffffffffffffffffffffffffffffffff16600073ffffffffffffffffffffffffffffffffffffffff168473ffffffffffffffffffffffffffffffffffffffff167fc3d58168c5ae7397731d063d5bbf3d657854427343f4c083240f7aacaa2d0f6289896040516109fe9291906124c3565b60405180910390a4610a1583600089858589611332565b610a248360008989898961133a565b50505050505050565b600033905090565b8151835114610a79576040517f08c379a0000000000000000000000000000000000000000000000000000000008152600401610a709061255e565b60405180910390fd5b600073ffffffffffffffffffffffffffffffffffffffff168473ffffffffffffffffffffffffffffffffffffffff1603610ae8576040517f08c379a0000000000000000000000000000000000000000000000000000000008152600401610adf906125f0565b60405180910390fd5b6000610af2610a2d565b9050610b0281878787878761132a565b60005b8451811015610cb3576000858281518110610b2357610b22612328565b5b602002602001015190506000858381518110610b4257610b41612328565b5b60200260200101519050600080600084815260200190815260200160002060008b73ffffffffffffffffffffffffffffffffffffffff1673ffffffffffffffffffffffffffffffffffffffff16815260200190815260200160002054905081811015610be3576040517f08c379a0000000000000000000000000000000000000000000000000000000008152600401610bda90612682565b60405180910390fd5b81810360008085815260200190815260200160002060008c73ffffffffffffffffffffffffffffffffffffffff1673ffffffffffffffffffffffffffffffffffffffff168152602001908152602001600020819055508160008085815260200190815260200160002060008b73ffffffffffffffffffffffffffffffffffffffff1673ffffffffffffffffffffffffffffffffffffffff1681526020019081526020016000206000828254610c98919061248f565b9250508190555050505080610cac90612386565b9050610b05565b508473ffffffffffffffffffffffffffffffffffffffff168673ffffffffffffffffffffffffffffffffffffffff168273ffffffffffffffffffffffffffffffffffffffff167f4a39dc06d4c0dbc64b70af90fd698a233a518aa5d07e595d983b8c0526c8f7fb8787604051610d2a9291906126a2565b60405180910390a4610d40818787878787611332565b610d4e818787878787611511565b505050505050565b8173ffffffffffffffffffffffffffffffffffffffff168373ffffffffffffffffffffffffffffffffffffffff1603610dc4576040517f08c379a0000000000000000000000000000000000000000000000000000000008152600401610dbb9061274b565b60405180910390fd5b80600160008573ffffffffffffffffffffffffffffffffffffffff1673ffffffffffffffffffffffffffffffffffffffff16815260200190815260200160002060008473ffffffffffffffffffffffffffffffffffffffff1673ffffffffffffffffffffffffffffffffffffffff16815260200190815260200160002060006101000a81548160ff0219169083151502179055508173ffffffffffffffffffffffffffffffffffffffff168373ffffffffffffffffffffffffffffffffffffffff167f17307eab39ab6107e8899845ad3d59bd9653f200f220920489ca2b5937696c3183604051610eb591906118bd565b60405180910390a3505050565b600073ffffffffffffffffffffffffffffffffffffffff168473ffffffffffffffffffffffffffffffffffffffff1603610f31576040517f08c379a0000000000000000000000000000000000000000000000000000000008152600401610f28906125f0565b60405180910390fd5b6000610f3b610a2d565b90506000610f48856112b0565b90506000610f55856112b0565b9050610f6583898985858961132a565b600080600088815260200190815260200160002060008a73ffffffffffffffffffffffffffffffffffffffff1673ffffffffffffffffffffffffffffffffffffffff16815260200190815260200160002054905085811015610ffc576040517f08c379a0000000000000000000000000000000000000000000000000000000008152600401610ff390612682565b60405180910390fd5b85810360008089815260200190815260200160002060008b73ffffffffffffffffffffffffffffffffffffffff1673ffffffffffffffffffffffffffffffffffffffff168152602001908152602001600020819055508560008089815260200190815260200160002060008a73ffffffffffffffffffffffffffffffffffffffff1673ffffffffffffffffffffffffffffffffffffffff16815260200190815260200160002060008282546110b1919061248f565b925050819055508773ffffffffffffffffffffffffffffffffffffffff168973ffffffffffffffffffffffffffffffffffffffff168573ffffffffffffffffffffffffffffffffffffffff167fc3d58168c5ae7397731d063d5bbf3d657854427343f4c083240f7aacaa2d0f628a8a60405161112e9291906124c3565b60405180910390a4611144848a8a86868a611332565b611152848a8a8a8a8a61133a565b505050505050505050565b600080600090507a184f03e93ff9f4daa797ed6e38ed64bf6a1f01000000000000000083106111bb577a184f03e93ff9f4daa797ed6e38ed64bf6a1f01000000000000000083816111b1576111b06123ce565b5b0492506040810190505b6d04ee2d6d415b85acef810000000083106111f8576d04ee2d6d415b85acef810000000083816111ee576111ed6123ce565b5b0492506020810190505b662386f26fc10000831061122757662386f26fc10000838161121d5761121c6123ce565b5b0492506010810190505b6305f5e1008310611250576305f5e1008381611246576112456123ce565b5b0492506008810190505b612710831061127557612710838161126b5761126a6123ce565b5b0492506004810190505b60648310611298576064838161128e5761128d6123ce565b5b0492506002810190505b600a83106112a7576001810190505b80915050919050565b60606000600167ffffffffffffffff8111156112cf576112ce6119fc565b5b6040519080825280602002602001820160405280156112fd5781602001602082028036833780820191505090505b509050828160008151811061131557611314612328565b5b60200260200101818152505080915050919050565b505050505050565b505050505050565b6113598473ffffffffffffffffffffffffffffffffffffffff166116e8565b15611509578373ffffffffffffffffffffffffffffffffffffffff1663f23a6e6187878686866040518663ffffffff1660e01b815260040161139f9594939291906127c0565b6020604051808303816000875af19250505080156113db57506040513d601f19601f820116820180604052508101906113d8919061282f565b60015b611480576113e7612869565b806308c379a00361144357506113fb61288b565b806114065750611445565b806040517f08c379a000000000000000000000000000000000000000000000000000000000815260040161143a9190611995565b60405180910390fd5b505b6040517f08c379a00000000000000000000000000000000000000000000000000000000081526004016114779061298d565b60405180910390fd5b63f23a6e6160e01b7bffffffffffffffffffffffffffffffffffffffffffffffffffffffff1916817bffffffffffffffffffffffffffffffffffffffffffffffffffffffff191614611507576040517f08c379a00000000000000000000000000000000000000000000000000000000081526004016114fe90612a1f565b60405180910390fd5b505b505050505050565b6115308473ffffffffffffffffffffffffffffffffffffffff166116e8565b156116e0578373ffffffffffffffffffffffffffffffffffffffff1663bc197c8187878686866040518663ffffffff1660e01b8152600401611576959493929190612a3f565b6020604051808303816000875af19250505080156115b257506040513d601f19601f820116820180604052508101906115af919061282f565b60015b611657576115be612869565b806308c379a00361161a57506115d261288b565b806115dd575061161c565b806040517f08c379a00000000000000000000000000000000000000000000000000000000081526004016116119190611995565b60405180910390fd5b505b6040517f08c379a000000000000000000000000000000000000000000000000000000000815260040161164e9061298d565b60405180910390fd5b63bc197c8160e01b7bffffffffffffffffffffffffffffffffffffffffffffffffffffffff1916817bffffffffffffffffffffffffffffffffffffffffffffffffffffffff1916146116de576040517f08c379a00000000000000000000000000000000000000000000000000000000081526004016116d590612a1f565b60405180910390fd5b505b505050505050565b6000808273ffffffffffffffffffffffffffffffffffffffff163b119050919050565b6000604051905090565b600080fd5b600080fd5b600073ffffffffffffffffffffffffffffffffffffffff82169050919050565b600061174a8261171f565b9050919050565b61175a8161173f565b811461176557600080fd5b50565b60008135905061177781611751565b92915050565b6000819050919050565b6117908161177d565b811461179b57600080fd5b50565b6000813590506117ad81611787565b92915050565b600080604083850312156117ca576117c9611715565b5b60006117d885828601611768565b92505060206117e98582860161179e565b9150509250929050565b6117fc8161177d565b82525050565b600060208201905061181760008301846117f3565b92915050565b60007fffffffff0000000000000000000000000000000000000000000000000000000082169050919050565b6118528161181d565b811461185d57600080fd5b50565b60008135905061186f81611849565b92915050565b60006020828403121561188b5761188a611715565b5b600061189984828501611860565b91505092915050565b60008115159050919050565b6118b7816118a2565b82525050565b60006020820190506118d260008301846118ae565b92915050565b6000602082840312156118ee576118ed611715565b5b60006118fc8482850161179e565b91505092915050565b600081519050919050565b600082825260208201905092915050565b60005b8381101561193f578082015181840152602081019050611924565b60008484015250505050565b6000601f19601f8301169050919050565b600061196782611905565b6119718185611910565b9350611981818560208601611921565b61198a8161194b565b840191505092915050565b600060208201905081810360008301526119af818461195c565b905092915050565b600080604083850312156119ce576119cd611715565b5b60006119dc8582860161179e565b92505060206119ed8582860161179e565b9150509250929050565b600080fd5b7f4e487b7100000000000000000000000000000000000000000000000000000000600052604160045260246000fd5b611a348261194b565b810181811067ffffffffffffffff82111715611a5357611a526119fc565b5b80604052505050565b6000611a6661170b565b9050611a728282611a2b565b919050565b600067ffffffffffffffff821115611a9257611a916119fc565b5b602082029050602081019050919050565b600080fd5b6000611abb611ab684611a77565b611a5c565b90508083825260208201905060208402830185811115611ade57611add611aa3565b5b835b81811015611b075780611af3888261179e565b845260208401935050602081019050611ae0565b5050509392505050565b600082601f830112611b2657611b256119f7565b5b8135611b36848260208601611aa8565b91505092915050565b600080fd5b600067ffffffffffffffff821115611b5f57611b5e6119fc565b5b611b688261194b565b9050602081019050919050565b82818337600083830152505050565b6000611b97611b9284611b44565b611a5c565b905082815260208101848484011115611bb357611bb2611b3f565b5b611bbe848285611b75565b509392505050565b600082601f830112611bdb57611bda6119f7565b5b8135611beb848260208601611b84565b91505092915050565b600080600080600060a08688031215611c1057611c0f611715565b5b6000611c1e88828901611768565b9550506020611c2f88828901611768565b945050604086013567ffffffffffffffff811115611c5057611c4f61171a565b5b611c5c88828901611b11565b935050606086013567ffffffffffffffff811115611c7d57611c7c61171a565b5b611c8988828901611b11565b925050608086013567ffffffffffffffff811115611caa57611ca961171a565b5b611cb688828901611bc6565b9150509295509295909350565b600067ffffffffffffffff821115611cde57611cdd6119fc565b5b602082029050602081019050919050565b6000611d02611cfd84611cc3565b611a5c565b90508083825260208201905060208402830185811115611d2557611d24611aa3565b5b835b81811015611d4e5780611d3a8882611768565b845260208401935050602081019050611d27565b5050509392505050565b600082601f830112611d6d57611d6c6119f7565b5b8135611d7d848260208601611cef565b91505092915050565b60008060408385031215611d9d57611d9c611715565b5b600083013567ffffffffffffffff811115611dbb57611dba61171a565b5b611dc785828601611d58565b925050602083013567ffffffffffffffff811115611de857611de761171a565b5b611df485828601611b11565b9150509250929050565b600081519050919050565b600082825260208201905092915050565b6000819050602082019050919050565b611e338161177d565b82525050565b6000611e458383611e2a565b60208301905092915050565b6000602082019050919050565b6000611e6982611dfe565b611e738185611e09565b9350611e7e83611e1a565b8060005b83811015611eaf578151611e968882611e39565b9750611ea183611e51565b925050600181019050611e82565b5085935050505092915050565b60006020820190508181036000830152611ed68184611e5e565b905092915050565b611ee78161173f565b82525050565b6000602082019050611f026000830184611ede565b92915050565b611f11816118a2565b8114611f1c57600080fd5b50565b600081359050611f2e81611f08565b92915050565b60008060408385031215611f4b57611f4a611715565b5b6000611f5985828601611768565b9250506020611f6a85828601611f1f565b9150509250929050565b60008060408385031215611f8b57611f8a611715565b5b6000611f9985828601611768565b9250506020611faa85828601611768565b9150509250929050565b600080600080600060a08688031215611fd057611fcf611715565b5b6000611fde88828901611768565b9550506020611fef88828901611768565b94505060406120008882890161179e565b93505060606120118882890161179e565b925050608086013567ffffffffffffffff8111156120325761203161171a565b5b61203e88828901611bc6565b9150509295509295909350565b7f455243313135353a2061646472657373207a65726f206973206e6f742061207660008201527f616c6964206f776e657200000000000000000000000000000000000000000000602082015250565b60006120a7602a83611910565b91506120b28261204b565b604082019050919050565b600060208201905081810360008301526120d68161209a565b9050919050565b600081905092915050565b7f697066733a2f2f516d54723733684e6a42333332613736704a573459376a694460008201527f39314170544b3853777352336970454e5a474275432f00000000000000000000602082015250565b60006121446036836120dd565b915061214f826120e8565b603682019050919050565b600061216582611905565b61216f81856120dd565b935061217f818560208601611921565b80840191505092915050565b7f2e6a736f6e000000000000000000000000000000000000000000000000000000600082015250565b60006121c16005836120dd565b91506121cc8261218b565b600582019050919050565b60006121e282612137565b91506121ee828461215a565b91506121f9826121b4565b915081905092915050565b7f455243313135353a2063616c6c6572206973206e6f7420746f6b656e206f776e60008201527f6572206f7220617070726f766564000000000000000000000000000000000000602082015250565b6000612260602e83611910565b915061226b82612204565b604082019050919050565b6000602082019050818103600083015261228f81612253565b9050919050565b7f455243313135353a206163636f756e747320616e6420696473206c656e67746860008201527f206d69736d617463680000000000000000000000000000000000000000000000602082015250565b60006122f2602983611910565b91506122fd82612296565b604082019050919050565b60006020820190508181036000830152612321816122e5565b9050919050565b7f4e487b7100000000000000000000000000000000000000000000000000000000600052603260045260246000fd5b7f4e487b7100000000000000000000000000000000000000000000000000000000600052601160045260246000fd5b60006123918261177d565b91507fffffffffffffffffffffffffffffffffffffffffffffffffffffffffffffffff82036123c3576123c2612357565b5b600182019050919050565b7f4e487b7100000000000000000000000000000000000000000000000000000000600052601260045260246000fd5b7f455243313135353a206d696e7420746f20746865207a65726f2061646472657360008201527f7300000000000000000000000000000000000000000000000000000000000000602082015250565b6000612459602183611910565b9150612464826123fd565b604082019050919050565b600060208201905081810360008301526124888161244c565b9050919050565b600061249a8261177d565b91506124a58361177d565b92508282019050808211156124bd576124bc612357565b5b92915050565b60006040820190506124d860008301856117f3565b6124e560208301846117f3565b9392505050565b7f455243313135353a2069647320616e6420616d6f756e7473206c656e6774682060008201527f6d69736d61746368000000000000000000000000000000000000000000000000602082015250565b6000612548602883611910565b9150612553826124ec565b604082019050919050565b600060208201905081810360008301526125778161253b565b9050919050565b7f455243313135353a207472616e7366657220746f20746865207a65726f20616460008201527f6472657373000000000000000000000000000000000000000000000000000000602082015250565b60006125da602583611910565b91506125e58261257e565b604082019050919050565b60006020820190508181036000830152612609816125cd565b9050919050565b7f455243313135353a20696e73756666696369656e742062616c616e636520666f60008201527f72207472616e7366657200000000000000000000000000000000000000000000602082015250565b600061266c602a83611910565b915061267782612610565b604082019050919050565b6000602082019050818103600083015261269b8161265f565b9050919050565b600060408201905081810360008301526126bc8185611e5e565b905081810360208301526126d08184611e5e565b90509392505050565b7f455243313135353a2073657474696e6720617070726f76616c2073746174757360008201527f20666f722073656c660000000000000000000000000000000000000000000000602082015250565b6000612735602983611910565b9150612740826126d9565b604082019050919050565b6000602082019050818103600083015261276481612728565b9050919050565b600081519050919050565b600082825260208201905092915050565b60006127928261276b565b61279c8185612776565b93506127ac818560208601611921565b6127b58161194b565b840191505092915050565b600060a0820190506127d56000830188611ede565b6127e26020830187611ede565b6127ef60408301866117f3565b6127fc60608301856117f3565b818103608083015261280e8184612787565b90509695505050505050565b60008151905061282981611849565b92915050565b60006020828403121561284557612844611715565b5b60006128538482850161281a565b91505092915050565b60008160e01c9050919050565b600060033d11156128885760046000803e61288560005161285c565b90505b90565b600060443d106129185761289d61170b565b60043d036004823e80513d602482011167ffffffffffffffff821117156128c5575050612918565b808201805167ffffffffffffffff8111156128e35750505050612918565b80602083010160043d038501811115612900575050505050612918565b61290f82602001850186611a2b565b82955050505050505b90565b7f455243313135353a207472616e7366657220746f206e6f6e2d4552433131353560008201527f526563656976657220696d706c656d656e746572000000000000000000000000602082015250565b6000612977603483611910565b91506129828261291b565b604082019050919050565b600060208201905081810360008301526129a68161296a565b9050919050565b7f455243313135353a204552433131353552656365697665722072656a6563746560008201527f6420746f6b656e73000000000000000000000000000000000000000000000000602082015250565b6000612a09602883611910565b9150612a14826129ad565b604082019050919050565b60006020820190508181036000830152612a38816129fc565b9050919050565b600060a082019050612a546000830188611ede565b612a616020830187611ede565b8181036040830152612a738186611e5e565b90508181036060830152612a878185611e5e565b90508181036080830152612a9b8184612787565b9050969550505050505056fea26469706673582212204012a5fe02bb86c4f95bd58508b2599f4aa83758fa80e57ba1f3e38a2e7a728b64736f6c63430008120033697066733a2f2f516d54723733684e6a42333332613736704a573459376a694439314170544b3853777352336970454e5a474275432f7b69647d2e6a736f6e",
  "linkReferences": {},
  "deployedLinkReferences": {}
}