{
  "_format": "hh-sol-artifact-1",
  "contractName": "Books",
  "sourceName": "contracts/Books.sol",
  "abi": [
    {
      "inputs": [
        {
          "internalType": "string",
          "name": "baseURI",
          "type": "string"
        }
      ],
      "stateMutability": "nonpayable",
      "type": "constructor"
    },
    {
      "anonymous": false,
      "inputs": [
        {
          "indexed": true,
          "internalType": "address",
          "name": "account",
          "type": "address"
        },
        {
          "indexed": true,
          "internalType": "address",
          "name": "operator",
          "type": "address"
        },
        {
          "indexed": false,
          "internalType": "bool",
          "name": "approved",
          "type": "bool"
        }
      ],
      "name": "ApprovalForAll",
      "type": "event"
    },
    {
      "anonymous": false,
      "inputs": [
        {
          "indexed": true,
          "internalType": "address",
          "name": "previousOwner",
          "type": "address"
        },
        {
          "indexed": true,
          "internalType": "address",
          "name": "newOwner",
          "type": "address"
        }
      ],
      "name": "OwnershipTransferred",
      "type": "event"
    },
    {
      "anonymous": false,
      "inputs": [
        {
          "indexed": true,
          "internalType": "address",
          "name": "operator",
          "type": "address"
        },
        {
          "indexed": true,
          "internalType": "address",
          "name": "from",
          "type": "address"
        },
        {
          "indexed": true,
          "internalType": "address",
          "name": "to",
          "type": "address"
        },
        {
          "indexed": false,
          "internalType": "uint256[]",
          "name": "ids",
          "type": "uint256[]"
        },
        {
          "indexed": false,
          "internalType": "uint256[]",
          "name": "values",
          "type": "uint256[]"
        }
      ],
      "name": "TransferBatch",
      "type": "event"
    },
    {
      "anonymous": false,
      "inputs": [
        {
          "indexed": true,
          "internalType": "address",
          "name": "operator",
          "type": "address"
        },
        {
          "indexed": true,
          "internalType": "address",
          "name": "from",
          "type": "address"
        },
        {
          "indexed": true,
          "internalType": "address",
          "name": "to",
          "type": "address"
        },
        {
          "indexed": false,
          "internalType": "uint256",
          "name": "id",
          "type": "uint256"
        },
        {
          "indexed": false,
          "internalType": "uint256",
          "name": "value",
          "type": "uint256"
        }
      ],
      "name": "TransferSingle",
      "type": "event"
    },
    {
      "anonymous": false,
      "inputs": [
        {
          "indexed": false,
          "internalType": "string",
          "name": "value",
          "type": "string"
        },
        {
          "indexed": true,
          "internalType": "uint256",
          "name": "id",
          "type": "uint256"
        }
      ],
      "name": "URI",
      "type": "event"
    },
    {
      "inputs": [
        {
          "internalType": "address",
          "name": "account",
          "type": "address"
        },
        {
          "internalType": "uint256",
          "name": "id",
          "type": "uint256"
        }
      ],
      "name": "balanceOf",
      "outputs": [
        {
          "internalType": "uint256",
          "name": "",
          "type": "uint256"
        }
      ],
      "stateMutability": "view",
      "type": "function"
    },
    {
      "inputs": [
        {
          "internalType": "address[]",
          "name": "accounts",
          "type": "address[]"
        },
        {
          "internalType": "uint256[]",
          "name": "ids",
          "type": "uint256[]"
        }
      ],
      "name": "balanceOfBatch",
      "outputs": [
        {
          "internalType": "uint256[]",
          "name": "",
          "type": "uint256[]"
        }
      ],
      "stateMutability": "view",
      "type": "function"
    },
    {
      "inputs": [
        {
          "internalType": "address",
          "name": "account",
          "type": "address"
        },
        {
          "internalType": "address",
          "name": "operator",
          "type": "address"
        }
      ],
      "name": "isApprovedForAll",
      "outputs": [
        {
          "internalType": "bool",
          "name": "",
          "type": "bool"
        }
      ],
      "stateMutability": "view",
      "type": "function"
    },
    {
      "inputs": [
        {
          "internalType": "address",
          "name": "to",
          "type": "address"
        },
        {
          "internalType": "uint256",
          "name": "id",
          "type": "uint256"
        },
        {
          "internalType": "uint256",
          "name": "amount",
          "type": "uint256"
        }
      ],
      "name": "mint",
      "outputs": [],
      "stateMutability": "nonpayable",
      "type": "function"
    },
    {
      "inputs": [],
      "name": "owner",
      "outputs": [
        {
          "internalType": "address",
          "name": "",
          "type": "address"
        }
      ],
      "stateMutability": "view",
      "type": "function"
    },
    {
      "inputs": [],
      "name": "renounceOwnership",
      "outputs": [],
      "stateMutability": "nonpayable",
      "type": "function"
    },
    {
      "inputs": [
        {
          "internalType": "address",
          "name": "from",
          "type": "address"
        },
        {
          "internalType": "address",
          "name": "to",
          "type": "address"
        },
        {
          "internalType": "uint256[]",
          "name": "ids",
          "type": "uint256[]"
        },
        {
          "internalType": "uint256[]",
          "name": "amounts",
          "type": "uint256[]"
        },
        {
          "internalType": "bytes",
          "name": "data",
          "type": "bytes"
        }
      ],
      "name": "safeBatchTransferFrom",
      "outputs": [],
      "stateMutability": "nonpayable",
      "type": "function"
    },
    {
      "inputs": [
        {
          "internalType": "address",
          "name": "from",
          "type": "address"
        },
        {
          "internalType": "address",
          "name": "to",
          "type": "address"
        },
        {
          "internalType": "uint256",
          "name": "id",
          "type": "uint256"
        },
        {
          "internalType": "uint256",
          "name": "amount",
          "type": "uint256"
        },
        {
          "internalType": "bytes",
          "name": "data",
          "type": "bytes"
        }
      ],
      "name": "safeTransferFrom",
      "outputs": [],
      "stateMutability": "nonpayable",
      "type": "function"
    },
    {
      "inputs": [
        {
          "internalType": "address",
          "name": "operator",
          "type": "address"
        },
        {
          "internalType": "bool",
          "name": "approved",
          "type": "bool"
        }
      ],
      "name": "setApprovalForAll",
      "outputs": [],
      "stateMutability": "nonpayable",
      "type": "function"
    },
    {
      "inputs": [
        {
          "internalType": "string",
          "name": "baseURI",
          "type": "string"
        }
      ],
      "name": "setBaseURI",
      "outputs": [],
      "stateMutability": "nonpayable",
      "type": "function"
    },
    {
      "inputs": [
        {
          "internalType": "bytes4",
          "name": "interfaceId",
          "type": "bytes4"
        }
      ],
      "name": "supportsInterface",
      "outputs": [
        {
          "internalType": "bool",
          "name": "",
          "type": "bool"
        }
      ],
      "stateMutability": "view",
      "type": "function"
    },
    {
      "inputs": [
        {
          "internalType": "address",
          "name": "newOwner",
          "type": "address"
        }
      ],
      "name": "transferOwnership",
      "outputs": [],
      "stateMutability": "nonpayable",
      "type": "function"
    },
    {
      "inputs": [
        {
          "internalType": "uint256",
          "name": "id",
          "type": "uint256"
        }
      ],
      "name": "uri",
      "outputs": [
        {
          "internalType": "string",
          "name": "",
          "type": "string"
        }
      ],
      "stateMutability": "view",
      "type": "function"
    }
  ],
  "bytecode": "0x60806040523480156200001157600080fd5b50604051620039223803806200392283398181016040528101906200003791906200031c565b6040518060200160405280600081525062000058816200009160201b60201c565b50620000796200006d620000a660201b60201c565b620000ae60201b60201c565b6200008a816200017460201b60201c565b506200069f565b8060029081620000a29190620005b8565b5050565b600033905090565b6000600360009054906101000a900473ffffffffffffffffffffffffffffffffffffffff16905081600360006101000a81548173ffffffffffffffffffffffffffffffffffffffff021916908373ffffffffffffffffffffffffffffffffffffffff1602179055508173ffffffffffffffffffffffffffffffffffffffff168173ffffffffffffffffffffffffffffffffffffffff167f8be0079c531659141344cd1fd0a4f28419497f9722a3daafe3b4186f6b6457e060405160405180910390a35050565b8060049081620001859190620005b8565b5050565b6000604051905090565b600080fd5b600080fd5b600080fd5b600080fd5b6000601f19601f8301169050919050565b7f4e487b7100000000000000000000000000000000000000000000000000000000600052604160045260246000fd5b620001f282620001a7565b810181811067ffffffffffffffff82111715620002145762000213620001b8565b5b80604052505050565b60006200022962000189565b9050620002378282620001e7565b919050565b600067ffffffffffffffff8211156200025a5762000259620001b8565b5b6200026582620001a7565b9050602081019050919050565b60005b838110156200029257808201518184015260208101905062000275565b60008484015250505050565b6000620002b5620002af846200023c565b6200021d565b905082815260208101848484011115620002d457620002d3620001a2565b5b620002e184828562000272565b509392505050565b600082601f8301126200030157620003006200019d565b5b8151620003138482602086016200029e565b91505092915050565b60006020828403121562000335576200033462000193565b5b600082015167ffffffffffffffff81111562000356576200035562000198565b5b6200036484828501620002e9565b91505092915050565b600081519050919050565b7f4e487b7100000000000000000000000000000000000000000000000000000000600052602260045260246000fd5b60006002820490506001821680620003c057607f821691505b602082108103620003d657620003d562000378565b5b50919050565b60008190508160005260206000209050919050565b60006020601f8301049050919050565b600082821b905092915050565b600060088302620004407fffffffffffffffffffffffffffffffffffffffffffffffffffffffffffffffff8262000401565b6200044c868362000401565b95508019841693508086168417925050509392505050565b6000819050919050565b6000819050919050565b600062000499620004936200048d8462000464565b6200046e565b62000464565b9050919050565b6000819050919050565b620004b58362000478565b620004cd620004c482620004a0565b8484546200040e565b825550505050565b600090565b620004e4620004d5565b620004f1818484620004aa565b505050565b5b8181101562000519576200050d600082620004da565b600181019050620004f7565b5050565b601f82111562000568576200053281620003dc565b6200053d84620003f1565b810160208510156200054d578190505b620005656200055c85620003f1565b830182620004f6565b50505b505050565b600082821c905092915050565b60006200058d600019846008026200056d565b1980831691505092915050565b6000620005a883836200057a565b9150826002028217905092915050565b620005c3826200036d565b67ffffffffffffffff811115620005df57620005de620001b8565b5b620005eb8254620003a7565b620005f88282856200051d565b600060209050601f8311600181146200063057600084156200061b578287015190505b6200062785826200059a565b86555062000697565b601f1984166200064086620003dc565b60005b828110156200066a5784890151825560018201915060208501945060208101905062000643565b868310156200068a578489015162000686601f8916826200057a565b8355505b6001600288020188555050505b505050505050565b61327380620006af6000396000f3fe608060405234801561001057600080fd5b50600436106100ce5760003560e01c806355f804b31161008c578063a22cb46511610066578063a22cb4651461020f578063e985e9c51461022b578063f242432a1461025b578063f2fde38b14610277576100ce565b806355f804b3146101cb578063715018a6146101e75780638da5cb5b146101f1576100ce565b8062fdd58e146100d357806301ffc9a7146101035780630e89341c14610133578063156e29f6146101635780632eb2c2d61461017f5780634e1273f41461019b575b600080fd5b6100ed60048036038101906100e89190611a30565b610293565b6040516100fa9190611a7f565b60405180910390f35b61011d60048036038101906101189190611af2565b61035b565b60405161012a9190611b3a565b60405180910390f35b61014d60048036038101906101489190611b55565b61043d565b60405161015a9190611c12565b60405180910390f35b61017d60048036038101906101789190611c34565b610471565b005b61019960048036038101906101949190611e84565b610491565b005b6101b560048036038101906101b09190612016565b610532565b6040516101c2919061214c565b60405180910390f35b6101e560048036038101906101e0919061220f565b61064b565b005b6101ef61065f565b005b6101f9610673565b6040516102069190612267565b60405180910390f35b610229600480360381019061022491906122ae565b61069d565b005b610245600480360381019061024091906122ee565b6106b3565b6040516102529190611b3a565b60405180910390f35b6102756004803603810190610270919061232e565b610747565b005b610291600480360381019061028c91906123c5565b6107e8565b005b60008073ffffffffffffffffffffffffffffffffffffffff168373ffffffffffffffffffffffffffffffffffffffff1603610303576040517f08c379a00000000000000000000000000000000000000000000000000000000081526004016102fa90612464565b60405180910390fd5b60008083815260200190815260200160002060008473ffffffffffffffffffffffffffffffffffffffff1673ffffffffffffffffffffffffffffffffffffffff16815260200190815260200160002054905092915050565b60007fd9b67a26000000000000000000000000000000000000000000000000000000007bffffffffffffffffffffffffffffffffffffffffffffffffffffffff1916827bffffffffffffffffffffffffffffffffffffffffffffffffffffffff1916148061042657507f0e89341c000000000000000000000000000000000000000000000000000000007bffffffffffffffffffffffffffffffffffffffffffffffffffffffff1916827bffffffffffffffffffffffffffffffffffffffffffffffffffffffff1916145b8061043657506104358261086b565b5b9050919050565b6060600461044a836108d5565b60405160200161045b929190612604565b6040516020818303038152906040529050919050565b61048c838383604051806020016040528060008152506109a3565b505050565b610499610b53565b73ffffffffffffffffffffffffffffffffffffffff168573ffffffffffffffffffffffffffffffffffffffff1614806104df57506104de856104d9610b53565b6106b3565b5b61051e576040517f08c379a0000000000000000000000000000000000000000000000000000000008152600401610515906126a5565b60405180910390fd5b61052b8585858585610b5b565b5050505050565b60608151835114610578576040517f08c379a000000000000000000000000000000000000000000000000000000000815260040161056f90612737565b60405180910390fd5b6000835167ffffffffffffffff81111561059557610594611c8c565b5b6040519080825280602002602001820160405280156105c35781602001602082028036833780820191505090505b50905060005b8451811015610640576106108582815181106105e8576105e7612757565b5b602002602001015185838151811061060357610602612757565b5b6020026020010151610293565b82828151811061062357610622612757565b5b60200260200101818152505080610639906127b5565b90506105c9565b508091505092915050565b610653610e7c565b61065c81610efa565b50565b610667610e7c565b6106716000610f0d565b565b6000600360009054906101000a900473ffffffffffffffffffffffffffffffffffffffff16905090565b6106af6106a8610b53565b8383610fd3565b5050565b6000600160008473ffffffffffffffffffffffffffffffffffffffff1673ffffffffffffffffffffffffffffffffffffffff16815260200190815260200160002060008373ffffffffffffffffffffffffffffffffffffffff1673ffffffffffffffffffffffffffffffffffffffff16815260200190815260200160002060009054906101000a900460ff16905092915050565b61074f610b53565b73ffffffffffffffffffffffffffffffffffffffff168573ffffffffffffffffffffffffffffffffffffffff16148061079557506107948561078f610b53565b6106b3565b5b6107d4576040517f08c379a00000000000000000000000000000000000000000000000000000000081526004016107cb906126a5565b60405180910390fd5b6107e1858585858561113f565b5050505050565b6107f0610e7c565b600073ffffffffffffffffffffffffffffffffffffffff168173ffffffffffffffffffffffffffffffffffffffff160361085f576040517f08c379a00000000000000000000000000000000000000000000000000000000081526004016108569061286f565b60405180910390fd5b61086881610f0d565b50565b60007f01ffc9a7000000000000000000000000000000000000000000000000000000007bffffffffffffffffffffffffffffffffffffffffffffffffffffffff1916827bffffffffffffffffffffffffffffffffffffffffffffffffffffffff1916149050919050565b6060600060016108e4846113da565b01905060008167ffffffffffffffff81111561090357610902611c8c565b5b6040519080825280601f01601f1916602001820160405280156109355781602001600182028036833780820191505090505b509050600082602001820190505b600115610998578080600190039150507f3031323334353637383961626364656600000000000000000000000000000000600a86061a8153600a858161098c5761098b61288f565b5b04945060008503610943575b819350505050919050565b600073ffffffffffffffffffffffffffffffffffffffff168473ffffffffffffffffffffffffffffffffffffffff1603610a12576040517f08c379a0000000000000000000000000000000000000000000000000000000008152600401610a0990612930565b60405180910390fd5b6000610a1c610b53565b90506000610a298561152d565b90506000610a368561152d565b9050610a47836000898585896115a7565b8460008088815260200190815260200160002060008973ffffffffffffffffffffffffffffffffffffffff1673ffffffffffffffffffffffffffffffffffffffff1681526020019081526020016000206000828254610aa69190612950565b925050819055508673ffffffffffffffffffffffffffffffffffffffff16600073ffffffffffffffffffffffffffffffffffffffff168473ffffffffffffffffffffffffffffffffffffffff167fc3d58168c5ae7397731d063d5bbf3d657854427343f4c083240f7aacaa2d0f628989604051610b24929190612984565b60405180910390a4610b3b836000898585896115af565b610b4a836000898989896115b7565b50505050505050565b600033905090565b8151835114610b9f576040517f08c379a0000000000000000000000000000000000000000000000000000000008152600401610b9690612a1f565b60405180910390fd5b600073ffffffffffffffffffffffffffffffffffffffff168473ffffffffffffffffffffffffffffffffffffffff1603610c0e576040517f08c379a0000000000000000000000000000000000000000000000000000000008152600401610c0590612ab1565b60405180910390fd5b6000610c18610b53565b9050610c288187878787876115a7565b60005b8451811015610dd9576000858281518110610c4957610c48612757565b5b602002602001015190506000858381518110610c6857610c67612757565b5b60200260200101519050600080600084815260200190815260200160002060008b73ffffffffffffffffffffffffffffffffffffffff1673ffffffffffffffffffffffffffffffffffffffff16815260200190815260200160002054905081811015610d09576040517f08c379a0000000000000000000000000000000000000000000000000000000008152600401610d0090612b43565b60405180910390fd5b81810360008085815260200190815260200160002060008c73ffffffffffffffffffffffffffffffffffffffff1673ffffffffffffffffffffffffffffffffffffffff168152602001908152602001600020819055508160008085815260200190815260200160002060008b73ffffffffffffffffffffffffffffffffffffffff1673ffffffffffffffffffffffffffffffffffffffff1681526020019081526020016000206000828254610dbe9190612950565b9250508190555050505080610dd2906127b5565b9050610c2b565b508473ffffffffffffffffffffffffffffffffffffffff168673ffffffffffffffffffffffffffffffffffffffff168273ffffffffffffffffffffffffffffffffffffffff167f4a39dc06d4c0dbc64b70af90fd698a233a518aa5d07e595d983b8c0526c8f7fb8787604051610e50929190612b63565b60405180910390a4610e668187878787876115af565b610e7481878787878761178e565b505050505050565b610e84610b53565b73ffffffffffffffffffffffffffffffffffffffff16610ea2610673565b73ffffffffffffffffffffffffffffffffffffffff1614610ef8576040517f08c379a0000000000000000000000000000000000000000000000000000000008152600401610eef90612be6565b60405180910390fd5b565b8060049081610f099190612d9d565b5050565b6000600360009054906101000a900473ffffffffffffffffffffffffffffffffffffffff16905081600360006101000a81548173ffffffffffffffffffffffffffffffffffffffff021916908373ffffffffffffffffffffffffffffffffffffffff1602179055508173ffffffffffffffffffffffffffffffffffffffff168173ffffffffffffffffffffffffffffffffffffffff167f8be0079c531659141344cd1fd0a4f28419497f9722a3daafe3b4186f6b6457e060405160405180910390a35050565b8173ffffffffffffffffffffffffffffffffffffffff168373ffffffffffffffffffffffffffffffffffffffff1603611041576040517f08c379a000000000000000000000000000000000000000000000000000000000815260040161103890612ee1565b60405180910390fd5b80600160008573ffffffffffffffffffffffffffffffffffffffff1673ffffffffffffffffffffffffffffffffffffffff16815260200190815260200160002060008473ffffffffffffffffffffffffffffffffffffffff1673ffffffffffffffffffffffffffffffffffffffff16815260200190815260200160002060006101000a81548160ff0219169083151502179055508173ffffffffffffffffffffffffffffffffffffffff168373ffffffffffffffffffffffffffffffffffffffff167f17307eab39ab6107e8899845ad3d59bd9653f200f220920489ca2b5937696c31836040516111329190611b3a565b60405180910390a3505050565b600073ffffffffffffffffffffffffffffffffffffffff168473ffffffffffffffffffffffffffffffffffffffff16036111ae576040517f08c379a00000000000000000000000000000000000000000000000000000000081526004016111a590612ab1565b60405180910390fd5b60006111b8610b53565b905060006111c58561152d565b905060006111d28561152d565b90506111e28389898585896115a7565b600080600088815260200190815260200160002060008a73ffffffffffffffffffffffffffffffffffffffff1673ffffffffffffffffffffffffffffffffffffffff16815260200190815260200160002054905085811015611279576040517f08c379a000000000000000000000000000000000000000000000000000000000815260040161127090612b43565b60405180910390fd5b85810360008089815260200190815260200160002060008b73ffffffffffffffffffffffffffffffffffffffff1673ffffffffffffffffffffffffffffffffffffffff168152602001908152602001600020819055508560008089815260200190815260200160002060008a73ffffffffffffffffffffffffffffffffffffffff1673ffffffffffffffffffffffffffffffffffffffff168152602001908152602001600020600082825461132e9190612950565b925050819055508773ffffffffffffffffffffffffffffffffffffffff168973ffffffffffffffffffffffffffffffffffffffff168573ffffffffffffffffffffffffffffffffffffffff167fc3d58168c5ae7397731d063d5bbf3d657854427343f4c083240f7aacaa2d0f628a8a6040516113ab929190612984565b60405180910390a46113c1848a8a86868a6115af565b6113cf848a8a8a8a8a6115b7565b505050505050505050565b600080600090507a184f03e93ff9f4daa797ed6e38ed64bf6a1f0100000000000000008310611438577a184f03e93ff9f4daa797ed6e38ed64bf6a1f010000000000000000838161142e5761142d61288f565b5b0492506040810190505b6d04ee2d6d415b85acef81000000008310611475576d04ee2d6d415b85acef8100000000838161146b5761146a61288f565b5b0492506020810190505b662386f26fc1000083106114a457662386f26fc10000838161149a5761149961288f565b5b0492506010810190505b6305f5e10083106114cd576305f5e10083816114c3576114c261288f565b5b0492506008810190505b61271083106114f25761271083816114e8576114e761288f565b5b0492506004810190505b60648310611515576064838161150b5761150a61288f565b5b0492506002810190505b600a8310611524576001810190505b80915050919050565b60606000600167ffffffffffffffff81111561154c5761154b611c8c565b5b60405190808252806020026020018201604052801561157a5781602001602082028036833780820191505090505b509050828160008151811061159257611591612757565b5b60200260200101818152505080915050919050565b505050505050565b505050505050565b6115d68473ffffffffffffffffffffffffffffffffffffffff16611965565b15611786578373ffffffffffffffffffffffffffffffffffffffff1663f23a6e6187878686866040518663ffffffff1660e01b815260040161161c959493929190612f56565b6020604051808303816000875af192505050801561165857506040513d601f19601f820116820180604052508101906116559190612fc5565b60015b6116fd57611664612fff565b806308c379a0036116c05750611678613021565b8061168357506116c2565b806040517f08c379a00000000000000000000000000000000000000000000000000000000081526004016116b79190611c12565b60405180910390fd5b505b6040517f08c379a00000000000000000000000000000000000000000000000000000000081526004016116f490613123565b60405180910390fd5b63f23a6e6160e01b7bffffffffffffffffffffffffffffffffffffffffffffffffffffffff1916817bffffffffffffffffffffffffffffffffffffffffffffffffffffffff191614611784576040517f08c379a000000000000000000000000000000000000000000000000000000000815260040161177b906131b5565b60405180910390fd5b505b505050505050565b6117ad8473ffffffffffffffffffffffffffffffffffffffff16611965565b1561195d578373ffffffffffffffffffffffffffffffffffffffff1663bc197c8187878686866040518663ffffffff1660e01b81526004016117f39594939291906131d5565b6020604051808303816000875af192505050801561182f57506040513d601f19601f8201168201806040525081019061182c9190612fc5565b60015b6118d45761183b612fff565b806308c379a003611897575061184f613021565b8061185a5750611899565b806040517f08c379a000000000000000000000000000000000000000000000000000000000815260040161188e9190611c12565b60405180910390fd5b505b6040517f08c379a00000000000000000000000000000000000000000000000000000000081526004016118cb90613123565b60405180910390fd5b63bc197c8160e01b7bffffffffffffffffffffffffffffffffffffffffffffffffffffffff1916817bffffffffffffffffffffffffffffffffffffffffffffffffffffffff19161461195b576040517f08c379a0000000000000000000000000000000000000000000000000000000008152600401611952906131b5565b60405180910390fd5b505b505050505050565b6000808273ffffffffffffffffffffffffffffffffffffffff163b119050919050565b6000604051905090565b600080fd5b600080fd5b600073ffffffffffffffffffffffffffffffffffffffff82169050919050565b60006119c78261199c565b9050919050565b6119d7816119bc565b81146119e257600080fd5b50565b6000813590506119f4816119ce565b92915050565b6000819050919050565b611a0d816119fa565b8114611a1857600080fd5b50565b600081359050611a2a81611a04565b92915050565b60008060408385031215611a4757611a46611992565b5b6000611a55858286016119e5565b9250506020611a6685828601611a1b565b9150509250929050565b611a79816119fa565b82525050565b6000602082019050611a946000830184611a70565b92915050565b60007fffffffff0000000000000000000000000000000000000000000000000000000082169050919050565b611acf81611a9a565b8114611ada57600080fd5b50565b600081359050611aec81611ac6565b92915050565b600060208284031215611b0857611b07611992565b5b6000611b1684828501611add565b91505092915050565b60008115159050919050565b611b3481611b1f565b82525050565b6000602082019050611b4f6000830184611b2b565b92915050565b600060208284031215611b6b57611b6a611992565b5b6000611b7984828501611a1b565b91505092915050565b600081519050919050565b600082825260208201905092915050565b60005b83811015611bbc578082015181840152602081019050611ba1565b60008484015250505050565b6000601f19601f8301169050919050565b6000611be482611b82565b611bee8185611b8d565b9350611bfe818560208601611b9e565b611c0781611bc8565b840191505092915050565b60006020820190508181036000830152611c2c8184611bd9565b905092915050565b600080600060608486031215611c4d57611c4c611992565b5b6000611c5b868287016119e5565b9350506020611c6c86828701611a1b565b9250506040611c7d86828701611a1b565b9150509250925092565b600080fd5b7f4e487b7100000000000000000000000000000000000000000000000000000000600052604160045260246000fd5b611cc482611bc8565b810181811067ffffffffffffffff82111715611ce357611ce2611c8c565b5b80604052505050565b6000611cf6611988565b9050611d028282611cbb565b919050565b600067ffffffffffffffff821115611d2257611d21611c8c565b5b602082029050602081019050919050565b600080fd5b6000611d4b611d4684611d07565b611cec565b90508083825260208201905060208402830185811115611d6e57611d6d611d33565b5b835b81811015611d975780611d838882611a1b565b845260208401935050602081019050611d70565b5050509392505050565b600082601f830112611db657611db5611c87565b5b8135611dc6848260208601611d38565b91505092915050565b600080fd5b600067ffffffffffffffff821115611def57611dee611c8c565b5b611df882611bc8565b9050602081019050919050565b82818337600083830152505050565b6000611e27611e2284611dd4565b611cec565b905082815260208101848484011115611e4357611e42611dcf565b5b611e4e848285611e05565b509392505050565b600082601f830112611e6b57611e6a611c87565b5b8135611e7b848260208601611e14565b91505092915050565b600080600080600060a08688031215611ea057611e9f611992565b5b6000611eae888289016119e5565b9550506020611ebf888289016119e5565b945050604086013567ffffffffffffffff811115611ee057611edf611997565b5b611eec88828901611da1565b935050606086013567ffffffffffffffff811115611f0d57611f0c611997565b5b611f1988828901611da1565b925050608086013567ffffffffffffffff811115611f3a57611f39611997565b5b611f4688828901611e56565b9150509295509295909350565b600067ffffffffffffffff821115611f6e57611f6d611c8c565b5b602082029050602081019050919050565b6000611f92611f8d84611f53565b611cec565b90508083825260208201905060208402830185811115611fb557611fb4611d33565b5b835b81811015611fde5780611fca88826119e5565b845260208401935050602081019050611fb7565b5050509392505050565b600082601f830112611ffd57611ffc611c87565b5b813561200d848260208601611f7f565b91505092915050565b6000806040838503121561202d5761202c611992565b5b600083013567ffffffffffffffff81111561204b5761204a611997565b5b61205785828601611fe8565b925050602083013567ffffffffffffffff81111561207857612077611997565b5b61208485828601611da1565b9150509250929050565b600081519050919050565b600082825260208201905092915050565b6000819050602082019050919050565b6120c3816119fa565b82525050565b60006120d583836120ba565b60208301905092915050565b6000602082019050919050565b60006120f98261208e565b6121038185612099565b935061210e836120aa565b8060005b8381101561213f57815161212688826120c9565b9750612131836120e1565b925050600181019050612112565b5085935050505092915050565b6000602082019050818103600083015261216681846120ee565b905092915050565b600067ffffffffffffffff82111561218957612188611c8c565b5b61219282611bc8565b9050602081019050919050565b60006121b26121ad8461216e565b611cec565b9050828152602081018484840111156121ce576121cd611dcf565b5b6121d9848285611e05565b509392505050565b600082601f8301126121f6576121f5611c87565b5b813561220684826020860161219f565b91505092915050565b60006020828403121561222557612224611992565b5b600082013567ffffffffffffffff81111561224357612242611997565b5b61224f848285016121e1565b91505092915050565b612261816119bc565b82525050565b600060208201905061227c6000830184612258565b92915050565b61228b81611b1f565b811461229657600080fd5b50565b6000813590506122a881612282565b92915050565b600080604083850312156122c5576122c4611992565b5b60006122d3858286016119e5565b92505060206122e485828601612299565b9150509250929050565b6000806040838503121561230557612304611992565b5b6000612313858286016119e5565b9250506020612324858286016119e5565b9150509250929050565b600080600080600060a0868803121561234a57612349611992565b5b6000612358888289016119e5565b9550506020612369888289016119e5565b945050604061237a88828901611a1b565b935050606061238b88828901611a1b565b925050608086013567ffffffffffffffff8111156123ac576123ab611997565b5b6123b888828901611e56565b9150509295509295909350565b6000602082840312156123db576123da611992565b5b60006123e9848285016119e5565b91505092915050565b7f455243313135353a2061646472657373207a65726f206973206e6f742061207660008201527f616c6964206f776e657200000000000000000000000000000000000000000000602082015250565b600061244e602a83611b8d565b9150612459826123f2565b604082019050919050565b6000602082019050818103600083015261247d81612441565b9050919050565b7f4e487b7100000000000000000000000000000000000000000000000000000000600052602260045260246000fd5b600060028204905060018216806124cb57607f821691505b6020821081036124de576124dd612484565b5b50919050565b600081905092915050565b60008190508160005260206000209050919050565b60008154612511816124b3565b61251b81866124e4565b94506001821660008114612536576001811461254b5761257e565b60ff198316865281151582028601935061257e565b612554856124ef565b60005b8381101561257657815481890152600182019150602081019050612557565b838801955050505b50505092915050565b600061259282611b82565b61259c81856124e4565b93506125ac818560208601611b9e565b80840191505092915050565b7f2e6a736f6e000000000000000000000000000000000000000000000000000000600082015250565b60006125ee6005836124e4565b91506125f9826125b8565b600582019050919050565b60006126108285612504565b915061261c8284612587565b9150612627826125e1565b91508190509392505050565b7f455243313135353a2063616c6c6572206973206e6f7420746f6b656e206f776e60008201527f6572206f7220617070726f766564000000000000000000000000000000000000602082015250565b600061268f602e83611b8d565b915061269a82612633565b604082019050919050565b600060208201905081810360008301526126be81612682565b9050919050565b7f455243313135353a206163636f756e747320616e6420696473206c656e67746860008201527f206d69736d617463680000000000000000000000000000000000000000000000602082015250565b6000612721602983611b8d565b915061272c826126c5565b604082019050919050565b6000602082019050818103600083015261275081612714565b9050919050565b7f4e487b7100000000000000000000000000000000000000000000000000000000600052603260045260246000fd5b7f4e487b7100000000000000000000000000000000000000000000000000000000600052601160045260246000fd5b60006127c0826119fa565b91507fffffffffffffffffffffffffffffffffffffffffffffffffffffffffffffffff82036127f2576127f1612786565b5b600182019050919050565b7f4f776e61626c653a206e6577206f776e657220697320746865207a65726f206160008201527f6464726573730000000000000000000000000000000000000000000000000000602082015250565b6000612859602683611b8d565b9150612864826127fd565b604082019050919050565b600060208201905081810360008301526128888161284c565b9050919050565b7f4e487b7100000000000000000000000000000000000000000000000000000000600052601260045260246000fd5b7f455243313135353a206d696e7420746f20746865207a65726f2061646472657360008201527f7300000000000000000000000000000000000000000000000000000000000000602082015250565b600061291a602183611b8d565b9150612925826128be565b604082019050919050565b600060208201905081810360008301526129498161290d565b9050919050565b600061295b826119fa565b9150612966836119fa565b925082820190508082111561297e5761297d612786565b5b92915050565b60006040820190506129996000830185611a70565b6129a66020830184611a70565b9392505050565b7f455243313135353a2069647320616e6420616d6f756e7473206c656e6774682060008201527f6d69736d61746368000000000000000000000000000000000000000000000000602082015250565b6000612a09602883611b8d565b9150612a14826129ad565b604082019050919050565b60006020820190508181036000830152612a38816129fc565b9050919050565b7f455243313135353a207472616e7366657220746f20746865207a65726f20616460008201527f6472657373000000000000000000000000000000000000000000000000000000602082015250565b6000612a9b602583611b8d565b9150612aa682612a3f565b604082019050919050565b60006020820190508181036000830152612aca81612a8e565b9050919050565b7f455243313135353a20696e73756666696369656e742062616c616e636520666f60008201527f72207472616e7366657200000000000000000000000000000000000000000000602082015250565b6000612b2d602a83611b8d565b9150612b3882612ad1565b604082019050919050565b60006020820190508181036000830152612b5c81612b20565b9050919050565b60006040820190508181036000830152612b7d81856120ee565b90508181036020830152612b9181846120ee565b90509392505050565b7f4f776e61626c653a2063616c6c6572206973206e6f7420746865206f776e6572600082015250565b6000612bd0602083611b8d565b9150612bdb82612b9a565b602082019050919050565b60006020820190508181036000830152612bff81612bc3565b9050919050565b60006020601f8301049050919050565b600082821b905092915050565b600060088302612c537fffffffffffffffffffffffffffffffffffffffffffffffffffffffffffffffff82612c16565b612c5d8683612c16565b95508019841693508086168417925050509392505050565b6000819050919050565b6000612c9a612c95612c90846119fa565b612c75565b6119fa565b9050919050565b6000819050919050565b612cb483612c7f565b612cc8612cc082612ca1565b848454612c23565b825550505050565b600090565b612cdd612cd0565b612ce8818484612cab565b505050565b5b81811015612d0c57612d01600082612cd5565b600181019050612cee565b5050565b601f821115612d5157612d22816124ef565b612d2b84612c06565b81016020851015612d3a578190505b612d4e612d4685612c06565b830182612ced565b50505b505050565b600082821c905092915050565b6000612d7460001984600802612d56565b1980831691505092915050565b6000612d8d8383612d63565b9150826002028217905092915050565b612da682611b82565b67ffffffffffffffff811115612dbf57612dbe611c8c565b5b612dc982546124b3565b612dd4828285612d10565b600060209050601f831160018114612e075760008415612df5578287015190505b612dff8582612d81565b865550612e67565b601f198416612e15866124ef565b60005b82811015612e3d57848901518255600182019150602085019450602081019050612e18565b86831015612e5a5784890151612e56601f891682612d63565b8355505b6001600288020188555050505b505050505050565b7f455243313135353a2073657474696e6720617070726f76616c2073746174757360008201527f20666f722073656c660000000000000000000000000000000000000000000000602082015250565b6000612ecb602983611b8d565b9150612ed682612e6f565b604082019050919050565b60006020820190508181036000830152612efa81612ebe565b9050919050565b600081519050919050565b600082825260208201905092915050565b6000612f2882612f01565b612f328185612f0c565b9350612f42818560208601611b9e565b612f4b81611bc8565b840191505092915050565b600060a082019050612f6b6000830188612258565b612f786020830187612258565b612f856040830186611a70565b612f926060830185611a70565b8181036080830152612fa48184612f1d565b90509695505050505050565b600081519050612fbf81611ac6565b92915050565b600060208284031215612fdb57612fda611992565b5b6000612fe984828501612fb0565b91505092915050565b60008160e01c9050919050565b600060033d111561301e5760046000803e61301b600051612ff2565b90505b90565b600060443d106130ae57613033611988565b60043d036004823e80513d602482011167ffffffffffffffff8211171561305b5750506130ae565b808201805167ffffffffffffffff81111561307957505050506130ae565b80602083010160043d0385018111156130965750505050506130ae565b6130a582602001850186611cbb565b82955050505050505b90565b7f455243313135353a207472616e7366657220746f206e6f6e2d4552433131353560008201527f526563656976657220696d706c656d656e746572000000000000000000000000602082015250565b600061310d603483611b8d565b9150613118826130b1565b604082019050919050565b6000602082019050818103600083015261313c81613100565b9050919050565b7f455243313135353a204552433131353552656365697665722072656a6563746560008201527f6420746f6b656e73000000000000000000000000000000000000000000000000602082015250565b600061319f602883611b8d565b91506131aa82613143565b604082019050919050565b600060208201905081810360008301526131ce81613192565b9050919050565b600060a0820190506131ea6000830188612258565b6131f76020830187612258565b818103604083015261320981866120ee565b9050818103606083015261321d81856120ee565b905081810360808301526132318184612f1d565b9050969550505050505056fea26469706673582212204f0fc4a577b3b7e3823b624997bd0e37f09e333b428209e5d78a9c50575b71ce64736f6c63430008120033",
  "linkReferences": {},
  "deployedLinkReferences": {}
}