{
  "_format": "hh-sol-artifact-1",
  "contractName": "Books",
  "sourceName": "contracts/Books.sol",
  "abi": [
    {
      "inputs": [
        {
          "internalType": "string",
          "name": "uri",
          "type": "string"
        }
      ],
      "stateMutability": "nonpayable",
      "type": "constructor"
    },
    {
      "anonymous": false,
      "inputs": [
        {
          "indexed": true,
          "internalType": "address",
          "name": "account",
          "type": "address"
        },
        {
          "indexed": true,
          "internalType": "address",
          "name": "operator",
          "type": "address"
        },
        {
          "indexed": false,
          "internalType": "bool",
          "name": "approved",
          "type": "bool"
        }
      ],
      "name": "ApprovalForAll",
      "type": "event"
    },
    {
      "anonymous": false,
      "inputs": [
        {
          "indexed": true,
          "internalType": "address",
          "name": "previousOwner",
          "type": "address"
        },
        {
          "indexed": true,
          "internalType": "address",
          "name": "newOwner",
          "type": "address"
        }
      ],
      "name": "OwnershipTransferred",
      "type": "event"
    },
    {
      "anonymous": false,
      "inputs": [
        {
          "indexed": true,
          "internalType": "address",
          "name": "operator",
          "type": "address"
        },
        {
          "indexed": true,
          "internalType": "address",
          "name": "from",
          "type": "address"
        },
        {
          "indexed": true,
          "internalType": "address",
          "name": "to",
          "type": "address"
        },
        {
          "indexed": false,
          "internalType": "uint256[]",
          "name": "ids",
          "type": "uint256[]"
        },
        {
          "indexed": false,
          "internalType": "uint256[]",
          "name": "values",
          "type": "uint256[]"
        }
      ],
      "name": "TransferBatch",
      "type": "event"
    },
    {
      "anonymous": false,
      "inputs": [
        {
          "indexed": true,
          "internalType": "address",
          "name": "operator",
          "type": "address"
        },
        {
          "indexed": true,
          "internalType": "address",
          "name": "from",
          "type": "address"
        },
        {
          "indexed": true,
          "internalType": "address",
          "name": "to",
          "type": "address"
        },
        {
          "indexed": false,
          "internalType": "uint256",
          "name": "id",
          "type": "uint256"
        },
        {
          "indexed": false,
          "internalType": "uint256",
          "name": "value",
          "type": "uint256"
        }
      ],
      "name": "TransferSingle",
      "type": "event"
    },
    {
      "anonymous": false,
      "inputs": [
        {
          "indexed": false,
          "internalType": "string",
          "name": "value",
          "type": "string"
        },
        {
          "indexed": true,
          "internalType": "uint256",
          "name": "id",
          "type": "uint256"
        }
      ],
      "name": "URI",
      "type": "event"
    },
    {
      "inputs": [
        {
          "internalType": "address",
          "name": "account",
          "type": "address"
        },
        {
          "internalType": "uint256",
          "name": "id",
          "type": "uint256"
        }
      ],
      "name": "balanceOf",
      "outputs": [
        {
          "internalType": "uint256",
          "name": "",
          "type": "uint256"
        }
      ],
      "stateMutability": "view",
      "type": "function"
    },
    {
      "inputs": [
        {
          "internalType": "address[]",
          "name": "accounts",
          "type": "address[]"
        },
        {
          "internalType": "uint256[]",
          "name": "ids",
          "type": "uint256[]"
        }
      ],
      "name": "balanceOfBatch",
      "outputs": [
        {
          "internalType": "uint256[]",
          "name": "",
          "type": "uint256[]"
        }
      ],
      "stateMutability": "view",
      "type": "function"
    },
    {
      "inputs": [
        {
          "internalType": "address",
          "name": "account",
          "type": "address"
        },
        {
          "internalType": "address",
          "name": "operator",
          "type": "address"
        }
      ],
      "name": "isApprovedForAll",
      "outputs": [
        {
          "internalType": "bool",
          "name": "",
          "type": "bool"
        }
      ],
      "stateMutability": "view",
      "type": "function"
    },
    {
      "inputs": [
        {
          "internalType": "uint256",
          "name": "isbn",
          "type": "uint256"
        },
        {
          "internalType": "uint256",
          "name": "supply",
          "type": "uint256"
        },
        {
          "internalType": "string",
          "name": "uri",
          "type": "string"
        }
      ],
      "name": "mint",
      "outputs": [],
      "stateMutability": "nonpayable",
      "type": "function"
    },
    {
      "inputs": [],
      "name": "owner",
      "outputs": [
        {
          "internalType": "address",
          "name": "",
          "type": "address"
        }
      ],
      "stateMutability": "view",
      "type": "function"
    },
    {
      "inputs": [],
      "name": "renounceOwnership",
      "outputs": [],
      "stateMutability": "nonpayable",
      "type": "function"
    },
    {
      "inputs": [
        {
          "internalType": "address",
          "name": "from",
          "type": "address"
        },
        {
          "internalType": "address",
          "name": "to",
          "type": "address"
        },
        {
          "internalType": "uint256[]",
          "name": "ids",
          "type": "uint256[]"
        },
        {
          "internalType": "uint256[]",
          "name": "amounts",
          "type": "uint256[]"
        },
        {
          "internalType": "bytes",
          "name": "data",
          "type": "bytes"
        }
      ],
      "name": "safeBatchTransferFrom",
      "outputs": [],
      "stateMutability": "nonpayable",
      "type": "function"
    },
    {
      "inputs": [
        {
          "internalType": "address",
          "name": "from",
          "type": "address"
        },
        {
          "internalType": "address",
          "name": "to",
          "type": "address"
        },
        {
          "internalType": "uint256",
          "name": "id",
          "type": "uint256"
        },
        {
          "internalType": "uint256",
          "name": "amount",
          "type": "uint256"
        },
        {
          "internalType": "bytes",
          "name": "data",
          "type": "bytes"
        }
      ],
      "name": "safeTransferFrom",
      "outputs": [],
      "stateMutability": "nonpayable",
      "type": "function"
    },
    {
      "inputs": [
        {
          "internalType": "address",
          "name": "operator",
          "type": "address"
        },
        {
          "internalType": "bool",
          "name": "approved",
          "type": "bool"
        }
      ],
      "name": "setApprovalForAll",
      "outputs": [],
      "stateMutability": "nonpayable",
      "type": "function"
    },
    {
      "inputs": [
        {
          "internalType": "bytes4",
          "name": "interfaceId",
          "type": "bytes4"
        }
      ],
      "name": "supportsInterface",
      "outputs": [
        {
          "internalType": "bool",
          "name": "",
          "type": "bool"
        }
      ],
      "stateMutability": "view",
      "type": "function"
    },
    {
      "inputs": [
        {
          "internalType": "address",
          "name": "newOwner",
          "type": "address"
        }
      ],
      "name": "transferOwnership",
      "outputs": [],
      "stateMutability": "nonpayable",
      "type": "function"
    },
    {
      "inputs": [
        {
          "internalType": "uint256",
          "name": "tokenId",
          "type": "uint256"
        }
      ],
      "name": "uri",
      "outputs": [
        {
          "internalType": "string",
          "name": "",
          "type": "string"
        }
      ],
      "stateMutability": "view",
      "type": "function"
    }
  ],
  "bytecode": "0x60806040523480156200001157600080fd5b5060405162003578380380620035788339818101604052810190620000379190620002e7565b8062000049816200007160201b60201c565b506200006a6200005e6200008660201b60201c565b6200008e60201b60201c565b506200066a565b806002908162000082919062000583565b5050565b600033905090565b6000600360009054906101000a900473ffffffffffffffffffffffffffffffffffffffff16905081600360006101000a81548173ffffffffffffffffffffffffffffffffffffffff021916908373ffffffffffffffffffffffffffffffffffffffff1602179055508173ffffffffffffffffffffffffffffffffffffffff168173ffffffffffffffffffffffffffffffffffffffff167f8be0079c531659141344cd1fd0a4f28419497f9722a3daafe3b4186f6b6457e060405160405180910390a35050565b6000604051905090565b600080fd5b600080fd5b600080fd5b600080fd5b6000601f19601f8301169050919050565b7f4e487b7100000000000000000000000000000000000000000000000000000000600052604160045260246000fd5b620001bd8262000172565b810181811067ffffffffffffffff82111715620001df57620001de62000183565b5b80604052505050565b6000620001f462000154565b9050620002028282620001b2565b919050565b600067ffffffffffffffff82111562000225576200022462000183565b5b620002308262000172565b9050602081019050919050565b60005b838110156200025d57808201518184015260208101905062000240565b60008484015250505050565b6000620002806200027a8462000207565b620001e8565b9050828152602081018484840111156200029f576200029e6200016d565b5b620002ac8482856200023d565b509392505050565b600082601f830112620002cc57620002cb62000168565b5b8151620002de84826020860162000269565b91505092915050565b6000602082840312156200030057620002ff6200015e565b5b600082015167ffffffffffffffff81111562000321576200032062000163565b5b6200032f84828501620002b4565b91505092915050565b600081519050919050565b7f4e487b7100000000000000000000000000000000000000000000000000000000600052602260045260246000fd5b600060028204905060018216806200038b57607f821691505b602082108103620003a157620003a062000343565b5b50919050565b60008190508160005260206000209050919050565b60006020601f8301049050919050565b600082821b905092915050565b6000600883026200040b7fffffffffffffffffffffffffffffffffffffffffffffffffffffffffffffffff82620003cc565b620004178683620003cc565b95508019841693508086168417925050509392505050565b6000819050919050565b6000819050919050565b6000620004646200045e62000458846200042f565b62000439565b6200042f565b9050919050565b6000819050919050565b620004808362000443565b620004986200048f826200046b565b848454620003d9565b825550505050565b600090565b620004af620004a0565b620004bc81848462000475565b505050565b5b81811015620004e457620004d8600082620004a5565b600181019050620004c2565b5050565b601f8211156200053357620004fd81620003a7565b6200050884620003bc565b8101602085101562000518578190505b620005306200052785620003bc565b830182620004c1565b50505b505050565b600082821c905092915050565b6000620005586000198460080262000538565b1980831691505092915050565b600062000573838362000545565b9150826002028217905092915050565b6200058e8262000338565b67ffffffffffffffff811115620005aa57620005a962000183565b5b620005b6825462000372565b620005c3828285620004e8565b600060209050601f831160018114620005fb5760008415620005e6578287015190505b620005f2858262000565565b86555062000662565b601f1984166200060b86620003a7565b60005b8281101562000635578489015182556001820191506020850194506020810190506200060e565b8683101562000655578489015162000651601f89168262000545565b8355505b6001600288020188555050505b505050505050565b612efe806200067a6000396000f3fe608060405234801561001057600080fd5b50600436106100b35760003560e01c80638da5cb5b116100715780638da5cb5b1461019e578063a22cb465146101bc578063c6e64e53146101d8578063e985e9c5146101f4578063f242432a14610224578063f2fde38b14610240576100b3565b8062fdd58e146100b857806301ffc9a7146100e85780630e89341c146101185780632eb2c2d6146101485780634e1273f414610164578063715018a614610194575b600080fd5b6100d260048036038101906100cd9190611851565b61025c565b6040516100df91906118a0565b60405180910390f35b61010260048036038101906100fd9190611913565b610324565b60405161010f919061195b565b60405180910390f35b610132600480360381019061012d9190611976565b610406565b60405161013f9190611a33565b60405180910390f35b610162600480360381019061015d9190611c52565b6104ab565b005b61017e60048036038101906101799190611de4565b61054c565b60405161018b9190611f1a565b60405180910390f35b61019c610665565b005b6101a6610679565b6040516101b39190611f4b565b60405180910390f35b6101d660048036038101906101d19190611f92565b6106a3565b005b6101f260048036038101906101ed9190612073565b6106b9565b005b61020e600480360381019061020991906120e2565b6106e3565b60405161021b919061195b565b60405180910390f35b61023e60048036038101906102399190612122565b610777565b005b61025a600480360381019061025591906121b9565b610818565b005b60008073ffffffffffffffffffffffffffffffffffffffff168373ffffffffffffffffffffffffffffffffffffffff16036102cc576040517f08c379a00000000000000000000000000000000000000000000000000000000081526004016102c390612258565b60405180910390fd5b60008083815260200190815260200160002060008473ffffffffffffffffffffffffffffffffffffffff1673ffffffffffffffffffffffffffffffffffffffff16815260200190815260200160002054905092915050565b60007fd9b67a26000000000000000000000000000000000000000000000000000000007bffffffffffffffffffffffffffffffffffffffffffffffffffffffff1916827bffffffffffffffffffffffffffffffffffffffffffffffffffffffff191614806103ef57507f0e89341c000000000000000000000000000000000000000000000000000000007bffffffffffffffffffffffffffffffffffffffffffffffffffffffff1916827bffffffffffffffffffffffffffffffffffffffffffffffffffffffff1916145b806103ff57506103fe8261089b565b5b9050919050565b6060600460008381526020019081526020016000208054610426906122a7565b80601f0160208091040260200160405190810160405280929190818152602001828054610452906122a7565b801561049f5780601f106104745761010080835404028352916020019161049f565b820191906000526020600020905b81548152906001019060200180831161048257829003601f168201915b50505050509050919050565b6104b3610905565b73ffffffffffffffffffffffffffffffffffffffff168573ffffffffffffffffffffffffffffffffffffffff1614806104f957506104f8856104f3610905565b6106e3565b5b610538576040517f08c379a000000000000000000000000000000000000000000000000000000000815260040161052f9061234a565b60405180910390fd5b610545858585858561090d565b5050505050565b60608151835114610592576040517f08c379a0000000000000000000000000000000000000000000000000000000008152600401610589906123dc565b60405180910390fd5b6000835167ffffffffffffffff8111156105af576105ae611a5a565b5b6040519080825280602002602001820160405280156105dd5781602001602082028036833780820191505090505b50905060005b845181101561065a5761062a858281518110610602576106016123fc565b5b602002602001015185838151811061061d5761061c6123fc565b5b602002602001015161025c565b82828151811061063d5761063c6123fc565b5b602002602001018181525050806106539061245a565b90506105e3565b508091505092915050565b61066d610c2e565b6106776000610cac565b565b6000600360009054906101000a900473ffffffffffffffffffffffffffffffffffffffff16905090565b6106b56106ae610905565b8383610d72565b5050565b6106d433848460405180602001604052806000815250610ede565b6106de838261108e565b505050565b6000600160008473ffffffffffffffffffffffffffffffffffffffff1673ffffffffffffffffffffffffffffffffffffffff16815260200190815260200160002060008373ffffffffffffffffffffffffffffffffffffffff1673ffffffffffffffffffffffffffffffffffffffff16815260200190815260200160002060009054906101000a900460ff16905092915050565b61077f610905565b73ffffffffffffffffffffffffffffffffffffffff168573ffffffffffffffffffffffffffffffffffffffff1614806107c557506107c4856107bf610905565b6106e3565b5b610804576040517f08c379a00000000000000000000000000000000000000000000000000000000081526004016107fb9061234a565b60405180910390fd5b61081185858585856110b3565b5050505050565b610820610c2e565b600073ffffffffffffffffffffffffffffffffffffffff168173ffffffffffffffffffffffffffffffffffffffff160361088f576040517f08c379a000000000000000000000000000000000000000000000000000000000815260040161088690612514565b60405180910390fd5b61089881610cac565b50565b60007f01ffc9a7000000000000000000000000000000000000000000000000000000007bffffffffffffffffffffffffffffffffffffffffffffffffffffffff1916827bffffffffffffffffffffffffffffffffffffffffffffffffffffffff1916149050919050565b600033905090565b8151835114610951576040517f08c379a0000000000000000000000000000000000000000000000000000000008152600401610948906125a6565b60405180910390fd5b600073ffffffffffffffffffffffffffffffffffffffff168473ffffffffffffffffffffffffffffffffffffffff16036109c0576040517f08c379a00000000000000000000000000000000000000000000000000000000081526004016109b790612638565b60405180910390fd5b60006109ca610905565b90506109da81878787878761134e565b60005b8451811015610b8b5760008582815181106109fb576109fa6123fc565b5b602002602001015190506000858381518110610a1a57610a196123fc565b5b60200260200101519050600080600084815260200190815260200160002060008b73ffffffffffffffffffffffffffffffffffffffff1673ffffffffffffffffffffffffffffffffffffffff16815260200190815260200160002054905081811015610abb576040517f08c379a0000000000000000000000000000000000000000000000000000000008152600401610ab2906126ca565b60405180910390fd5b81810360008085815260200190815260200160002060008c73ffffffffffffffffffffffffffffffffffffffff1673ffffffffffffffffffffffffffffffffffffffff168152602001908152602001600020819055508160008085815260200190815260200160002060008b73ffffffffffffffffffffffffffffffffffffffff1673ffffffffffffffffffffffffffffffffffffffff1681526020019081526020016000206000828254610b7091906126ea565b9250508190555050505080610b849061245a565b90506109dd565b508473ffffffffffffffffffffffffffffffffffffffff168673ffffffffffffffffffffffffffffffffffffffff168273ffffffffffffffffffffffffffffffffffffffff167f4a39dc06d4c0dbc64b70af90fd698a233a518aa5d07e595d983b8c0526c8f7fb8787604051610c0292919061271e565b60405180910390a4610c18818787878787611356565b610c2681878787878761135e565b505050505050565b610c36610905565b73ffffffffffffffffffffffffffffffffffffffff16610c54610679565b73ffffffffffffffffffffffffffffffffffffffff1614610caa576040517f08c379a0000000000000000000000000000000000000000000000000000000008152600401610ca1906127a1565b60405180910390fd5b565b6000600360009054906101000a900473ffffffffffffffffffffffffffffffffffffffff16905081600360006101000a81548173ffffffffffffffffffffffffffffffffffffffff021916908373ffffffffffffffffffffffffffffffffffffffff1602179055508173ffffffffffffffffffffffffffffffffffffffff168173ffffffffffffffffffffffffffffffffffffffff167f8be0079c531659141344cd1fd0a4f28419497f9722a3daafe3b4186f6b6457e060405160405180910390a35050565b8173ffffffffffffffffffffffffffffffffffffffff168373ffffffffffffffffffffffffffffffffffffffff1603610de0576040517f08c379a0000000000000000000000000000000000000000000000000000000008152600401610dd790612833565b60405180910390fd5b80600160008573ffffffffffffffffffffffffffffffffffffffff1673ffffffffffffffffffffffffffffffffffffffff16815260200190815260200160002060008473ffffffffffffffffffffffffffffffffffffffff1673ffffffffffffffffffffffffffffffffffffffff16815260200190815260200160002060006101000a81548160ff0219169083151502179055508173ffffffffffffffffffffffffffffffffffffffff168373ffffffffffffffffffffffffffffffffffffffff167f17307eab39ab6107e8899845ad3d59bd9653f200f220920489ca2b5937696c3183604051610ed1919061195b565b60405180910390a3505050565b600073ffffffffffffffffffffffffffffffffffffffff168473ffffffffffffffffffffffffffffffffffffffff1603610f4d576040517f08c379a0000000000000000000000000000000000000000000000000000000008152600401610f44906128c5565b60405180910390fd5b6000610f57610905565b90506000610f6485611535565b90506000610f7185611535565b9050610f828360008985858961134e565b8460008088815260200190815260200160002060008973ffffffffffffffffffffffffffffffffffffffff1673ffffffffffffffffffffffffffffffffffffffff1681526020019081526020016000206000828254610fe191906126ea565b925050819055508673ffffffffffffffffffffffffffffffffffffffff16600073ffffffffffffffffffffffffffffffffffffffff168473ffffffffffffffffffffffffffffffffffffffff167fc3d58168c5ae7397731d063d5bbf3d657854427343f4c083240f7aacaa2d0f62898960405161105f9291906128e5565b60405180910390a461107683600089858589611356565b611085836000898989896115af565b50505050505050565b806004600084815260200190815260200160002090816110ae9190612aba565b505050565b600073ffffffffffffffffffffffffffffffffffffffff168473ffffffffffffffffffffffffffffffffffffffff1603611122576040517f08c379a000000000000000000000000000000000000000000000000000000000815260040161111990612638565b60405180910390fd5b600061112c610905565b9050600061113985611535565b9050600061114685611535565b905061115683898985858961134e565b600080600088815260200190815260200160002060008a73ffffffffffffffffffffffffffffffffffffffff1673ffffffffffffffffffffffffffffffffffffffff168152602001908152602001600020549050858110156111ed576040517f08c379a00000000000000000000000000000000000000000000000000000000081526004016111e4906126ca565b60405180910390fd5b85810360008089815260200190815260200160002060008b73ffffffffffffffffffffffffffffffffffffffff1673ffffffffffffffffffffffffffffffffffffffff168152602001908152602001600020819055508560008089815260200190815260200160002060008a73ffffffffffffffffffffffffffffffffffffffff1673ffffffffffffffffffffffffffffffffffffffff16815260200190815260200160002060008282546112a291906126ea565b925050819055508773ffffffffffffffffffffffffffffffffffffffff168973ffffffffffffffffffffffffffffffffffffffff168573ffffffffffffffffffffffffffffffffffffffff167fc3d58168c5ae7397731d063d5bbf3d657854427343f4c083240f7aacaa2d0f628a8a60405161131f9291906128e5565b60405180910390a4611335848a8a86868a611356565b611343848a8a8a8a8a6115af565b505050505050505050565b505050505050565b505050505050565b61137d8473ffffffffffffffffffffffffffffffffffffffff16611786565b1561152d578373ffffffffffffffffffffffffffffffffffffffff1663bc197c8187878686866040518663ffffffff1660e01b81526004016113c3959493929190612be1565b6020604051808303816000875af19250505080156113ff57506040513d601f19601f820116820180604052508101906113fc9190612c5e565b60015b6114a45761140b612c98565b806308c379a003611467575061141f612cba565b8061142a5750611469565b806040517f08c379a000000000000000000000000000000000000000000000000000000000815260040161145e9190611a33565b60405180910390fd5b505b6040517f08c379a000000000000000000000000000000000000000000000000000000000815260040161149b90612dbc565b60405180910390fd5b63bc197c8160e01b7bffffffffffffffffffffffffffffffffffffffffffffffffffffffff1916817bffffffffffffffffffffffffffffffffffffffffffffffffffffffff19161461152b576040517f08c379a000000000000000000000000000000000000000000000000000000000815260040161152290612e4e565b60405180910390fd5b505b505050505050565b60606000600167ffffffffffffffff81111561155457611553611a5a565b5b6040519080825280602002602001820160405280156115825781602001602082028036833780820191505090505b509050828160008151811061159a576115996123fc565b5b60200260200101818152505080915050919050565b6115ce8473ffffffffffffffffffffffffffffffffffffffff16611786565b1561177e578373ffffffffffffffffffffffffffffffffffffffff1663f23a6e6187878686866040518663ffffffff1660e01b8152600401611614959493929190612e6e565b6020604051808303816000875af192505050801561165057506040513d601f19601f8201168201806040525081019061164d9190612c5e565b60015b6116f55761165c612c98565b806308c379a0036116b85750611670612cba565b8061167b57506116ba565b806040517f08c379a00000000000000000000000000000000000000000000000000000000081526004016116af9190611a33565b60405180910390fd5b505b6040517f08c379a00000000000000000000000000000000000000000000000000000000081526004016116ec90612dbc565b60405180910390fd5b63f23a6e6160e01b7bffffffffffffffffffffffffffffffffffffffffffffffffffffffff1916817bffffffffffffffffffffffffffffffffffffffffffffffffffffffff19161461177c576040517f08c379a000000000000000000000000000000000000000000000000000000000815260040161177390612e4e565b60405180910390fd5b505b505050505050565b6000808273ffffffffffffffffffffffffffffffffffffffff163b119050919050565b6000604051905090565b600080fd5b600080fd5b600073ffffffffffffffffffffffffffffffffffffffff82169050919050565b60006117e8826117bd565b9050919050565b6117f8816117dd565b811461180357600080fd5b50565b600081359050611815816117ef565b92915050565b6000819050919050565b61182e8161181b565b811461183957600080fd5b50565b60008135905061184b81611825565b92915050565b60008060408385031215611868576118676117b3565b5b600061187685828601611806565b92505060206118878582860161183c565b9150509250929050565b61189a8161181b565b82525050565b60006020820190506118b56000830184611891565b92915050565b60007fffffffff0000000000000000000000000000000000000000000000000000000082169050919050565b6118f0816118bb565b81146118fb57600080fd5b50565b60008135905061190d816118e7565b92915050565b600060208284031215611929576119286117b3565b5b6000611937848285016118fe565b91505092915050565b60008115159050919050565b61195581611940565b82525050565b6000602082019050611970600083018461194c565b92915050565b60006020828403121561198c5761198b6117b3565b5b600061199a8482850161183c565b91505092915050565b600081519050919050565b600082825260208201905092915050565b60005b838110156119dd5780820151818401526020810190506119c2565b60008484015250505050565b6000601f19601f8301169050919050565b6000611a05826119a3565b611a0f81856119ae565b9350611a1f8185602086016119bf565b611a28816119e9565b840191505092915050565b60006020820190508181036000830152611a4d81846119fa565b905092915050565b600080fd5b7f4e487b7100000000000000000000000000000000000000000000000000000000600052604160045260246000fd5b611a92826119e9565b810181811067ffffffffffffffff82111715611ab157611ab0611a5a565b5b80604052505050565b6000611ac46117a9565b9050611ad08282611a89565b919050565b600067ffffffffffffffff821115611af057611aef611a5a565b5b602082029050602081019050919050565b600080fd5b6000611b19611b1484611ad5565b611aba565b90508083825260208201905060208402830185811115611b3c57611b3b611b01565b5b835b81811015611b655780611b51888261183c565b845260208401935050602081019050611b3e565b5050509392505050565b600082601f830112611b8457611b83611a55565b5b8135611b94848260208601611b06565b91505092915050565b600080fd5b600067ffffffffffffffff821115611bbd57611bbc611a5a565b5b611bc6826119e9565b9050602081019050919050565b82818337600083830152505050565b6000611bf5611bf084611ba2565b611aba565b905082815260208101848484011115611c1157611c10611b9d565b5b611c1c848285611bd3565b509392505050565b600082601f830112611c3957611c38611a55565b5b8135611c49848260208601611be2565b91505092915050565b600080600080600060a08688031215611c6e57611c6d6117b3565b5b6000611c7c88828901611806565b9550506020611c8d88828901611806565b945050604086013567ffffffffffffffff811115611cae57611cad6117b8565b5b611cba88828901611b6f565b935050606086013567ffffffffffffffff811115611cdb57611cda6117b8565b5b611ce788828901611b6f565b925050608086013567ffffffffffffffff811115611d0857611d076117b8565b5b611d1488828901611c24565b9150509295509295909350565b600067ffffffffffffffff821115611d3c57611d3b611a5a565b5b602082029050602081019050919050565b6000611d60611d5b84611d21565b611aba565b90508083825260208201905060208402830185811115611d8357611d82611b01565b5b835b81811015611dac5780611d988882611806565b845260208401935050602081019050611d85565b5050509392505050565b600082601f830112611dcb57611dca611a55565b5b8135611ddb848260208601611d4d565b91505092915050565b60008060408385031215611dfb57611dfa6117b3565b5b600083013567ffffffffffffffff811115611e1957611e186117b8565b5b611e2585828601611db6565b925050602083013567ffffffffffffffff811115611e4657611e456117b8565b5b611e5285828601611b6f565b9150509250929050565b600081519050919050565b600082825260208201905092915050565b6000819050602082019050919050565b611e918161181b565b82525050565b6000611ea38383611e88565b60208301905092915050565b6000602082019050919050565b6000611ec782611e5c565b611ed18185611e67565b9350611edc83611e78565b8060005b83811015611f0d578151611ef48882611e97565b9750611eff83611eaf565b925050600181019050611ee0565b5085935050505092915050565b60006020820190508181036000830152611f348184611ebc565b905092915050565b611f45816117dd565b82525050565b6000602082019050611f606000830184611f3c565b92915050565b611f6f81611940565b8114611f7a57600080fd5b50565b600081359050611f8c81611f66565b92915050565b60008060408385031215611fa957611fa86117b3565b5b6000611fb785828601611806565b9250506020611fc885828601611f7d565b9150509250929050565b600067ffffffffffffffff821115611fed57611fec611a5a565b5b611ff6826119e9565b9050602081019050919050565b600061201661201184611fd2565b611aba565b90508281526020810184848401111561203257612031611b9d565b5b61203d848285611bd3565b509392505050565b600082601f83011261205a57612059611a55565b5b813561206a848260208601612003565b91505092915050565b60008060006060848603121561208c5761208b6117b3565b5b600061209a8682870161183c565b93505060206120ab8682870161183c565b925050604084013567ffffffffffffffff8111156120cc576120cb6117b8565b5b6120d886828701612045565b9150509250925092565b600080604083850312156120f9576120f86117b3565b5b600061210785828601611806565b925050602061211885828601611806565b9150509250929050565b600080600080600060a0868803121561213e5761213d6117b3565b5b600061214c88828901611806565b955050602061215d88828901611806565b945050604061216e8882890161183c565b935050606061217f8882890161183c565b925050608086013567ffffffffffffffff8111156121a05761219f6117b8565b5b6121ac88828901611c24565b9150509295509295909350565b6000602082840312156121cf576121ce6117b3565b5b60006121dd84828501611806565b91505092915050565b7f455243313135353a2061646472657373207a65726f206973206e6f742061207660008201527f616c6964206f776e657200000000000000000000000000000000000000000000602082015250565b6000612242602a836119ae565b915061224d826121e6565b604082019050919050565b6000602082019050818103600083015261227181612235565b9050919050565b7f4e487b7100000000000000000000000000000000000000000000000000000000600052602260045260246000fd5b600060028204905060018216806122bf57607f821691505b6020821081036122d2576122d1612278565b5b50919050565b7f455243313135353a2063616c6c6572206973206e6f7420746f6b656e206f776e60008201527f6572206f7220617070726f766564000000000000000000000000000000000000602082015250565b6000612334602e836119ae565b915061233f826122d8565b604082019050919050565b6000602082019050818103600083015261236381612327565b9050919050565b7f455243313135353a206163636f756e747320616e6420696473206c656e67746860008201527f206d69736d617463680000000000000000000000000000000000000000000000602082015250565b60006123c66029836119ae565b91506123d18261236a565b604082019050919050565b600060208201905081810360008301526123f5816123b9565b9050919050565b7f4e487b7100000000000000000000000000000000000000000000000000000000600052603260045260246000fd5b7f4e487b7100000000000000000000000000000000000000000000000000000000600052601160045260246000fd5b60006124658261181b565b91507fffffffffffffffffffffffffffffffffffffffffffffffffffffffffffffffff82036124975761249661242b565b5b600182019050919050565b7f4f776e61626c653a206e6577206f776e657220697320746865207a65726f206160008201527f6464726573730000000000000000000000000000000000000000000000000000602082015250565b60006124fe6026836119ae565b9150612509826124a2565b604082019050919050565b6000602082019050818103600083015261252d816124f1565b9050919050565b7f455243313135353a2069647320616e6420616d6f756e7473206c656e6774682060008201527f6d69736d61746368000000000000000000000000000000000000000000000000602082015250565b60006125906028836119ae565b915061259b82612534565b604082019050919050565b600060208201905081810360008301526125bf81612583565b9050919050565b7f455243313135353a207472616e7366657220746f20746865207a65726f20616460008201527f6472657373000000000000000000000000000000000000000000000000000000602082015250565b60006126226025836119ae565b915061262d826125c6565b604082019050919050565b6000602082019050818103600083015261265181612615565b9050919050565b7f455243313135353a20696e73756666696369656e742062616c616e636520666f60008201527f72207472616e7366657200000000000000000000000000000000000000000000602082015250565b60006126b4602a836119ae565b91506126bf82612658565b604082019050919050565b600060208201905081810360008301526126e3816126a7565b9050919050565b60006126f58261181b565b91506127008361181b565b92508282019050808211156127185761271761242b565b5b92915050565b600060408201905081810360008301526127388185611ebc565b9050818103602083015261274c8184611ebc565b90509392505050565b7f4f776e61626c653a2063616c6c6572206973206e6f7420746865206f776e6572600082015250565b600061278b6020836119ae565b915061279682612755565b602082019050919050565b600060208201905081810360008301526127ba8161277e565b9050919050565b7f455243313135353a2073657474696e6720617070726f76616c2073746174757360008201527f20666f722073656c660000000000000000000000000000000000000000000000602082015250565b600061281d6029836119ae565b9150612828826127c1565b604082019050919050565b6000602082019050818103600083015261284c81612810565b9050919050565b7f455243313135353a206d696e7420746f20746865207a65726f2061646472657360008201527f7300000000000000000000000000000000000000000000000000000000000000602082015250565b60006128af6021836119ae565b91506128ba82612853565b604082019050919050565b600060208201905081810360008301526128de816128a2565b9050919050565b60006040820190506128fa6000830185611891565b6129076020830184611891565b9392505050565b60008190508160005260206000209050919050565b60006020601f8301049050919050565b600082821b905092915050565b6000600883026129707fffffffffffffffffffffffffffffffffffffffffffffffffffffffffffffffff82612933565b61297a8683612933565b95508019841693508086168417925050509392505050565b6000819050919050565b60006129b76129b26129ad8461181b565b612992565b61181b565b9050919050565b6000819050919050565b6129d18361299c565b6129e56129dd826129be565b848454612940565b825550505050565b600090565b6129fa6129ed565b612a058184846129c8565b505050565b5b81811015612a2957612a1e6000826129f2565b600181019050612a0b565b5050565b601f821115612a6e57612a3f8161290e565b612a4884612923565b81016020851015612a57578190505b612a6b612a6385612923565b830182612a0a565b50505b505050565b600082821c905092915050565b6000612a9160001984600802612a73565b1980831691505092915050565b6000612aaa8383612a80565b9150826002028217905092915050565b612ac3826119a3565b67ffffffffffffffff811115612adc57612adb611a5a565b5b612ae682546122a7565b612af1828285612a2d565b600060209050601f831160018114612b245760008415612b12578287015190505b612b1c8582612a9e565b865550612b84565b601f198416612b328661290e565b60005b82811015612b5a57848901518255600182019150602085019450602081019050612b35565b86831015612b775784890151612b73601f891682612a80565b8355505b6001600288020188555050505b505050505050565b600081519050919050565b600082825260208201905092915050565b6000612bb382612b8c565b612bbd8185612b97565b9350612bcd8185602086016119bf565b612bd6816119e9565b840191505092915050565b600060a082019050612bf66000830188611f3c565b612c036020830187611f3c565b8181036040830152612c158186611ebc565b90508181036060830152612c298185611ebc565b90508181036080830152612c3d8184612ba8565b90509695505050505050565b600081519050612c58816118e7565b92915050565b600060208284031215612c7457612c736117b3565b5b6000612c8284828501612c49565b91505092915050565b60008160e01c9050919050565b600060033d1115612cb75760046000803e612cb4600051612c8b565b90505b90565b600060443d10612d4757612ccc6117a9565b60043d036004823e80513d602482011167ffffffffffffffff82111715612cf4575050612d47565b808201805167ffffffffffffffff811115612d125750505050612d47565b80602083010160043d038501811115612d2f575050505050612d47565b612d3e82602001850186611a89565b82955050505050505b90565b7f455243313135353a207472616e7366657220746f206e6f6e2d4552433131353560008201527f526563656976657220696d706c656d656e746572000000000000000000000000602082015250565b6000612da66034836119ae565b9150612db182612d4a565b604082019050919050565b60006020820190508181036000830152612dd581612d99565b9050919050565b7f455243313135353a204552433131353552656365697665722072656a6563746560008201527f6420746f6b656e73000000000000000000000000000000000000000000000000602082015250565b6000612e386028836119ae565b9150612e4382612ddc565b604082019050919050565b60006020820190508181036000830152612e6781612e2b565b9050919050565b600060a082019050612e836000830188611f3c565b612e906020830187611f3c565b612e9d6040830186611891565b612eaa6060830185611891565b8181036080830152612ebc8184612ba8565b9050969550505050505056fea2646970667358221220ea1122ace49a09b655acc83a3e438d4a1a89b8fb6155e28ca36d93c20f732c3464736f6c63430008120033",
  "linkReferences": {},
  "deployedLinkReferences": {}
}